{
  "contractName": "LendingPool",
  "abi": [
    {
      "inputs": [
        {
          "internalType": "address",
          "name": "_eINRToken",
          "type": "address"
        },
        {
          "internalType": "address",
          "name": "_eGoldToken",
          "type": "address"
        },
        {
          "internalType": "address",
          "name": "_lpToken",
          "type": "address"
        }
      ],
      "stateMutability": "nonpayable",
      "type": "constructor"
    },
    {
      "anonymous": false,
      "inputs": [
        {
          "indexed": true,
          "internalType": "address",
          "name": "account",
          "type": "address"
        },
        {
          "indexed": false,
          "internalType": "uint256",
          "name": "amount",
          "type": "uint256"
        },
        {
          "indexed": false,
          "internalType": "uint256",
          "name": "startBorrowTime",
          "type": "uint256"
        }
      ],
      "name": "Borrowedloan",
      "type": "event"
    },
    {
      "anonymous": false,
      "inputs": [
        {
          "indexed": true,
          "internalType": "address",
          "name": "account",
          "type": "address"
        },
        {
          "indexed": false,
          "internalType": "uint256",
          "name": "eINRamount",
          "type": "uint256"
        },
        {
          "indexed": false,
          "internalType": "uint256",
          "name": "startDepositTime",
          "type": "uint256"
        }
      ],
      "name": "Deposited",
      "type": "event"
    },
    {
      "anonymous": false,
      "inputs": [
        {
          "indexed": true,
          "internalType": "address",
          "name": "account",
          "type": "address"
        },
        {
          "indexed": false,
          "internalType": "uint256",
          "name": "amount",
          "type": "uint256"
        }
      ],
      "name": "Repayedloan",
      "type": "event"
    },
    {
      "anonymous": false,
      "inputs": [
        {
          "indexed": true,
          "internalType": "address",
          "name": "account",
          "type": "address"
        },
        {
          "indexed": false,
          "internalType": "uint256",
          "name": "amount",
          "type": "uint256"
        }
      ],
      "name": "Withdrawed",
      "type": "event"
    },
    {
      "inputs": [
        {
          "internalType": "address",
          "name": "",
          "type": "address"
        }
      ],
      "name": "balanceOfEGold",
      "outputs": [
        {
          "internalType": "uint256",
          "name": "",
          "type": "uint256"
        }
      ],
      "stateMutability": "view",
      "type": "function",
      "constant": true
    },
    {
      "inputs": [
        {
          "internalType": "address",
          "name": "",
          "type": "address"
        }
      ],
      "name": "balanceOfEINR",
      "outputs": [
        {
          "internalType": "uint256",
          "name": "",
          "type": "uint256"
        }
      ],
      "stateMutability": "view",
      "type": "function",
      "constant": true
    },
    {
      "inputs": [
        {
          "internalType": "address",
          "name": "",
          "type": "address"
        }
      ],
      "name": "borrowEINRAmount",
      "outputs": [
        {
          "internalType": "uint256",
          "name": "",
          "type": "uint256"
        }
      ],
      "stateMutability": "view",
      "type": "function",
      "constant": true
    },
    {
      "inputs": [
        {
          "internalType": "address",
          "name": "",
          "type": "address"
        }
      ],
      "name": "borrowedTime",
      "outputs": [
        {
          "internalType": "uint256",
          "name": "",
          "type": "uint256"
        }
      ],
      "stateMutability": "view",
      "type": "function",
      "constant": true
    },
    {
      "inputs": [
        {
          "internalType": "address",
          "name": "",
          "type": "address"
        }
      ],
      "name": "depositStartTime",
      "outputs": [
        {
          "internalType": "uint256",
          "name": "",
          "type": "uint256"
        }
      ],
      "stateMutability": "view",
      "type": "function",
      "constant": true
    },
    {
      "inputs": [],
      "name": "eGoldToken",
      "outputs": [
        {
          "internalType": "contract EGoldToken",
          "name": "",
          "type": "address"
        }
      ],
      "stateMutability": "view",
      "type": "function",
      "constant": true
    },
    {
      "inputs": [],
      "name": "eINRToken",
      "outputs": [
        {
          "internalType": "contract EINRToken",
          "name": "",
          "type": "address"
        }
      ],
      "stateMutability": "view",
      "type": "function",
      "constant": true
    },
    {
      "inputs": [],
      "name": "interestRateBorrower",
      "outputs": [
        {
          "internalType": "uint256",
          "name": "",
          "type": "uint256"
        }
      ],
      "stateMutability": "view",
      "type": "function",
      "constant": true
    },
    {
      "inputs": [],
      "name": "interestRateCommission",
      "outputs": [
        {
          "internalType": "uint256",
          "name": "",
          "type": "uint256"
        }
      ],
      "stateMutability": "view",
      "type": "function",
      "constant": true
    },
    {
      "inputs": [],
      "name": "interestRateLender",
      "outputs": [
        {
          "internalType": "uint256",
          "name": "",
          "type": "uint256"
        }
      ],
      "stateMutability": "view",
      "type": "function",
      "constant": true
    },
    {
      "inputs": [],
      "name": "lpToken",
      "outputs": [
        {
          "internalType": "contract LPToken",
          "name": "",
          "type": "address"
        }
      ],
      "stateMutability": "view",
      "type": "function",
      "constant": true
    },
    {
      "inputs": [],
      "name": "totalSupply",
      "outputs": [
        {
          "internalType": "uint256",
          "name": "",
          "type": "uint256"
        }
      ],
      "stateMutability": "view",
      "type": "function",
      "constant": true
    },
    {
      "inputs": [
        {
          "internalType": "address",
          "name": "",
          "type": "address"
        }
      ],
      "name": "usersKYCchecks",
      "outputs": [
        {
          "internalType": "bool",
          "name": "",
          "type": "bool"
        }
      ],
      "stateMutability": "view",
      "type": "function",
      "constant": true
    },
    {
      "inputs": [
        {
          "internalType": "address",
          "name": "account",
          "type": "address"
        },
        {
          "internalType": "uint256",
          "name": "_amount",
          "type": "uint256"
        }
      ],
      "name": "checkKYCForUsers",
      "outputs": [],
      "stateMutability": "nonpayable",
      "type": "function"
    },
    {
      "inputs": [
        {
          "internalType": "uint256",
          "name": "_EINRamount",
          "type": "uint256"
        }
      ],
      "name": "depositeINRToken",
      "outputs": [],
      "stateMutability": "nonpayable",
      "type": "function"
    },
    {
      "inputs": [
        {
          "internalType": "uint256",
          "name": "_EINRamount",
          "type": "uint256"
        }
      ],
      "name": "getAmountWithInterest",
      "outputs": [
        {
          "internalType": "uint256",
          "name": "",
          "type": "uint256"
        }
      ],
      "stateMutability": "view",
      "type": "function",
      "constant": true
    },
    {
      "inputs": [
        {
          "internalType": "uint256",
          "name": "amountToWithdraw",
          "type": "uint256"
        }
      ],
      "name": "withDrawEINRToken",
      "outputs": [],
      "stateMutability": "nonpayable",
      "type": "function"
    },
    {
      "inputs": [
        {
          "internalType": "uint256",
          "name": "_collateralAmount",
          "type": "uint256"
        }
      ],
      "name": "borrowEINRLoan",
      "outputs": [],
      "stateMutability": "nonpayable",
      "type": "function"
    },
    {
      "inputs": [
        {
          "internalType": "uint256",
          "name": "_EINRamount",
          "type": "uint256"
        }
      ],
      "name": "getborrowerRepayAmount",
      "outputs": [
        {
          "internalType": "uint256",
          "name": "",
          "type": "uint256"
        }
      ],
      "stateMutability": "view",
      "type": "function",
      "constant": true
    },
    {
      "inputs": [
        {
          "internalType": "uint256",
          "name": "repayAmount",
          "type": "uint256"
        }
      ],
      "name": "repayEINRLoan",
      "outputs": [],
      "stateMutability": "nonpayable",
      "type": "function"
    },
    {
      "inputs": [],
      "name": "getTotalOfSupplyEINRPool",
      "outputs": [
        {
          "internalType": "uint256",
          "name": "",
          "type": "uint256"
        }
      ],
      "stateMutability": "view",
      "type": "function",
      "constant": true
    },
    {
      "inputs": [],
      "name": "getTotalOfBalanceEINR",
      "outputs": [
        {
          "internalType": "uint256",
          "name": "",
          "type": "uint256"
        }
      ],
      "stateMutability": "view",
      "type": "function",
      "constant": true
    },
    {
      "inputs": [],
      "name": "getTotalBalanceEGold",
      "outputs": [
        {
          "internalType": "uint256",
          "name": "",
          "type": "uint256"
        }
      ],
      "stateMutability": "view",
      "type": "function",
      "constant": true
    },
    {
      "inputs": [
        {
          "internalType": "address",
          "name": "account",
          "type": "address"
        }
      ],
      "name": "getOwnerDepositEINRBalance",
      "outputs": [
        {
          "internalType": "uint256",
          "name": "",
          "type": "uint256"
        }
      ],
      "stateMutability": "view",
      "type": "function",
      "constant": true
    },
    {
      "inputs": [
        {
          "internalType": "address",
          "name": "account",
          "type": "address"
        }
      ],
      "name": "getOwnerEGoldBalance",
      "outputs": [
        {
          "internalType": "uint256",
          "name": "",
          "type": "uint256"
        }
      ],
      "stateMutability": "view",
      "type": "function",
      "constant": true
    },
    {
      "inputs": [
        {
          "internalType": "address",
          "name": "account",
          "type": "address"
        }
      ],
      "name": "getBorrowEINRAmount",
      "outputs": [
        {
          "internalType": "uint256",
          "name": "",
          "type": "uint256"
        }
      ],
      "stateMutability": "view",
      "type": "function",
      "constant": true
    },
    {
      "inputs": [
        {
          "internalType": "address",
          "name": "account",
          "type": "address"
        }
      ],
      "name": "getBalanceOfLPtoken",
      "outputs": [
        {
          "internalType": "uint256",
          "name": "",
          "type": "uint256"
        }
      ],
      "stateMutability": "view",
      "type": "function",
      "constant": true
    }
  ],
  "bytecode": "0x6080604052685150ae84a8cdf00000600555683635c9adc5dea000006006556103e860075561032060085560c86009553480156200003c57600080fd5b5060405162002430380380620024308339818101604052810190620000629190620001d8565b336000806101000a81548173ffffffffffffffffffffffffffffffffffffffff021916908373ffffffffffffffffffffffffffffffffffffffff16021790555082600360006101000a81548173ffffffffffffffffffffffffffffffffffffffff021916908373ffffffffffffffffffffffffffffffffffffffff16021790555081600260006101000a81548173ffffffffffffffffffffffffffffffffffffffff021916908373ffffffffffffffffffffffffffffffffffffffff16021790555080600160006101000a81548173ffffffffffffffffffffffffffffffffffffffff021916908373ffffffffffffffffffffffffffffffffffffffff16021790555050505062000234565b600080fd5b600073ffffffffffffffffffffffffffffffffffffffff82169050919050565b6000620001a08262000173565b9050919050565b620001b28162000193565b8114620001be57600080fd5b50565b600081519050620001d281620001a7565b92915050565b600080600060608486031215620001f457620001f36200016e565b5b60006200020486828701620001c1565b93505060206200021786828701620001c1565b92505060406200022a86828701620001c1565b9150509250925092565b6121ec80620002446000396000f3fe608060405234801561001057600080fd5b50600436106101a95760003560e01c806371f07e5c116100f9578063a657f2fd11610097578063b165346111610071578063b16534611461051e578063dcd63b921461053a578063ef36561014610558578063fd0b26e614610576576101a9565b8063a657f2fd1461048e578063a970ca76146104be578063ac22a7e3146104ee576101a9565b80638a76a112116100d35780638a76a112146103f25780639d06d41314610422578063a1c6502e14610452578063a2af1ac714610470576101a9565b806371f07e5c146103865780637d53dec1146103a4578063850bab7e146103d4576101a9565b80634d68086b11610166578063555b7b8511610140578063555b7b85146102ec57806356c76f39146103085780635fcbd28514610338578063641be7f214610356576101a9565b80634d68086b146102825780634f0587431461029e5780635534ef01146102bc576101a9565b80631548ceca146101ae57806318160ddd146101ca5780631d8c1180146101e85780631f928133146102185780632f7ca05914610234578063433c715114610264575b600080fd5b6101c860048036038101906101c391906119fc565b6105a6565b005b6101d26108fa565b6040516101df9190611a38565b60405180910390f35b61020260048036038101906101fd9190611ab1565b610900565b60405161020f9190611a38565b60405180910390f35b610232600480360381019061022d91906119fc565b6109b4565b005b61024e60048036038101906102499190611ab1565b610bab565b60405161025b9190611a38565b60405180910390f35b61026c610bf4565b6040516102799190611a38565b60405180910390f35b61029c600480360381019061029791906119fc565b610bfe565b005b6102a6610fc5565b6040516102b39190611a38565b60405180910390f35b6102d660048036038101906102d19190611ab1565b611077565b6040516102e39190611a38565b60405180910390f35b61030660048036038101906103019190611ade565b61108f565b005b610322600480360381019061031d9190611ab1565b611160565b60405161032f9190611a38565b60405180910390f35b610340611178565b60405161034d9190611b7d565b60405180910390f35b610370600480360381019061036b9190611ab1565b61119e565b60405161037d9190611bb3565b60405180910390f35b61038e6111be565b60405161039b9190611a38565b60405180910390f35b6103be60048036038101906103b99190611ab1565b6111c4565b6040516103cb9190611a38565b60405180910390f35b6103dc6111dc565b6040516103e99190611a38565b60405180910390f35b61040c60048036038101906104079190611ab1565b6111e2565b6040516104199190611a38565b60405180910390f35b61043c60048036038101906104379190611ab1565b6111fa565b6040516104499190611a38565b60405180910390f35b61045a611212565b6040516104679190611bef565b60405180910390f35b610478611238565b6040516104859190611a38565b60405180910390f35b6104a860048036038101906104a39190611ab1565b61123e565b6040516104b59190611a38565b60405180910390f35b6104d860048036038101906104d391906119fc565b611287565b6040516104e59190611a38565b60405180910390f35b61050860048036038101906105039190611ab1565b611416565b6040516105159190611a38565b60405180910390f35b610538600480360381019061053391906119fc565b61145f565b005b6105426116fa565b60405161054f9190611c2b565b60405180910390f35b610560611720565b60405161056d9190611a38565b60405180910390f35b610590600480360381019061058b91906119fc565b6117d2565b60405161059d9190611a38565b60405180910390f35b6105b0338261108f565b60008111801561066a575080600360009054906101000a900473ffffffffffffffffffffffffffffffffffffffff1673ffffffffffffffffffffffffffffffffffffffff166370a08231336040518263ffffffff1660e01b81526004016106179190611c55565b60206040518083038186803b15801561062f57600080fd5b505afa158015610643573d6000803e3d6000fd5b505050506040513d601f19601f820116820180604052508101906106679190611c85565b10155b6106a9576040517f08c379a00000000000000000000000000000000000000000000000000000000081526004016106a090611d0f565b60405180910390fd5b42600d60003373ffffffffffffffffffffffffffffffffffffffff1673ffffffffffffffffffffffffffffffffffffffff1681526020019081526020016000208190555080600a60003373ffffffffffffffffffffffffffffffffffffffff1673ffffffffffffffffffffffffffffffffffffffff168152602001908152602001600020600082825461073c9190611d5e565b9250508190555080600460008282546107559190611d5e565b92505081905550600360009054906101000a900473ffffffffffffffffffffffffffffffffffffffff1673ffffffffffffffffffffffffffffffffffffffff166323b872dd3330846040518463ffffffff1660e01b81526004016107bb93929190611db4565b602060405180830381600087803b1580156107d557600080fd5b505af11580156107e9573d6000803e3d6000fd5b505050506040513d601f19601f8201168201806040525081019061080d9190611e17565b503373ffffffffffffffffffffffffffffffffffffffff167f73a19dd210f1a7f902193214c0ee91dd35ee5b4d920cba8d519eca65a7b488ca8242604051610856929190611e44565b60405180910390a2600160009054906101000a900473ffffffffffffffffffffffffffffffffffffffff1673ffffffffffffffffffffffffffffffffffffffff166340c10f193369021e19e0c9bab24000006040518363ffffffff1660e01b81526004016108c5929190611ea8565b600060405180830381600087803b1580156108df57600080fd5b505af11580156108f3573d6000803e3d6000fd5b5050505050565b60045481565b6000600160009054906101000a900473ffffffffffffffffffffffffffffffffffffffff1673ffffffffffffffffffffffffffffffffffffffff166370a08231836040518263ffffffff1660e01b815260040161095d9190611c55565b60206040518083038186803b15801561097557600080fd5b505afa158015610989573d6000803e3d6000fd5b505050506040513d601f19601f820116820180604052508101906109ad9190611c85565b9050919050565b6000600a60003373ffffffffffffffffffffffffffffffffffffffff1673ffffffffffffffffffffffffffffffffffffffff168152602001908152602001600020819055508060046000828254610a0b9190611ed1565b92505081905550600360009054906101000a900473ffffffffffffffffffffffffffffffffffffffff1673ffffffffffffffffffffffffffffffffffffffff1663a9059cbb33836040518363ffffffff1660e01b8152600401610a6f929190611f05565b602060405180830381600087803b158015610a8957600080fd5b505af1158015610a9d573d6000803e3d6000fd5b505050506040513d601f19601f82011682018060405250810190610ac19190611e17565b503373ffffffffffffffffffffffffffffffffffffffff167f6cca423c6ffc06e62a0acc433965e074b11c28479b0449250ce3ff65ac9e39fe82604051610b089190611a38565b60405180910390a2600160009054906101000a900473ffffffffffffffffffffffffffffffffffffffff1673ffffffffffffffffffffffffffffffffffffffff16639dc29fac33683635c9adc5dea000006040518363ffffffff1660e01b8152600401610b76929190611f69565b600060405180830381600087803b158015610b9057600080fd5b505af1158015610ba4573d6000803e3d6000fd5b5050505050565b6000600b60008373ffffffffffffffffffffffffffffffffffffffff1673ffffffffffffffffffffffffffffffffffffffff168152602001908152602001600020549050919050565b6000600454905090565b80600260009054906101000a900473ffffffffffffffffffffffffffffffffffffffff1673ffffffffffffffffffffffffffffffffffffffff166370a08231336040518263ffffffff1660e01b8152600401610c5a9190611c55565b60206040518083038186803b158015610c7257600080fd5b505afa158015610c86573d6000803e3d6000fd5b505050506040513d601f19601f82011682018060405250810190610caa9190611c85565b1015610ceb576040517f08c379a0000000000000000000000000000000000000000000000000000000008152600401610ce290612004565b60405180910390fd5b42600e60003373ffffffffffffffffffffffffffffffffffffffff1673ffffffffffffffffffffffffffffffffffffffff1681526020019081526020016000208190555080600b60003373ffffffffffffffffffffffffffffffffffffffff1673ffffffffffffffffffffffffffffffffffffffff1681526020019081526020016000206000828254610d7e9190611d5e565b92505081905550600260009054906101000a900473ffffffffffffffffffffffffffffffffffffffff1673ffffffffffffffffffffffffffffffffffffffff166323b872dd3330846040518463ffffffff1660e01b8152600401610de493929190611db4565b602060405180830381600087803b158015610dfe57600080fd5b505af1158015610e12573d6000803e3d6000fd5b505050506040513d601f19601f82011682018060405250810190610e369190611e17565b506000600282610e469190612053565b9050610e52338261108f565b8060046000828254610e649190611ed1565b92505081905550600360009054906101000a900473ffffffffffffffffffffffffffffffffffffffff1673ffffffffffffffffffffffffffffffffffffffff1663a9059cbb33836040518363ffffffff1660e01b8152600401610ec8929190611f05565b602060405180830381600087803b158015610ee257600080fd5b505af1158015610ef6573d6000803e3d6000fd5b505050506040513d601f19601f82011682018060405250810190610f1a9190611e17565b5080600c60003373ffffffffffffffffffffffffffffffffffffffff1673ffffffffffffffffffffffffffffffffffffffff1681526020019081526020016000206000828254610f6a9190611d5e565b925050819055503373ffffffffffffffffffffffffffffffffffffffff167fd2b239deadbcb4baadbd0bef2a0d20d76becb200e80e43099a538d430b2ea0288242604051610fb9929190611e44565b60405180910390a25050565b6000600360009054906101000a900473ffffffffffffffffffffffffffffffffffffffff1673ffffffffffffffffffffffffffffffffffffffff166370a08231306040518263ffffffff1660e01b81526004016110229190611c55565b60206040518083038186803b15801561103a57600080fd5b505afa15801561104e573d6000803e3d6000fd5b505050506040513d601f19601f820116820180604052508101906110729190611c85565b905090565b600a6020528060005260406000206000915090505481565b600654811180156110a1575060055481115b15611103576001600f60008473ffffffffffffffffffffffffffffffffffffffff1673ffffffffffffffffffffffffffffffffffffffff16815260200190815260200160002060006101000a81548160ff02191690831515021790555061115c565b6000600f60008473ffffffffffffffffffffffffffffffffffffffff1673ffffffffffffffffffffffffffffffffffffffff16815260200190815260200160002060006101000a81548160ff0219169083151502179055505b5050565b600b6020528060005260406000206000915090505481565b600160009054906101000a900473ffffffffffffffffffffffffffffffffffffffff1681565b600f6020528060005260406000206000915054906101000a900460ff1681565b60075481565b600c6020528060005260406000206000915090505481565b60085481565b600e6020528060005260406000206000915090505481565b600d6020528060005260406000206000915090505481565b600260009054906101000a900473ffffffffffffffffffffffffffffffffffffffff1681565b60095481565b6000600a60008373ffffffffffffffffffffffffffffffffffffffff1673ffffffffffffffffffffffffffffffffffffffff168152602001908152602001600020549050919050565b600080821180156112d6575081600a60003373ffffffffffffffffffffffffffffffffffffffff1673ffffffffffffffffffffffffffffffffffffffff16815260200190815260200160002054145b611315576040517f08c379a000000000000000000000000000000000000000000000000000000000815260040161130c906120d0565b60405180910390fd5b6000603c600d60003373ffffffffffffffffffffffffffffffffffffffff1673ffffffffffffffffffffffffffffffffffffffff16815260200190815260200160002054426113649190611ed1565b61136e9190612053565b9050600062080520620186a083600854670de0b6b3a7640000886113929190612053565b61139c91906120f0565b6113a691906120f0565b6113b091906120f0565b6113ba9190612053565b9050600081600a60003373ffffffffffffffffffffffffffffffffffffffff1673ffffffffffffffffffffffffffffffffffffffff168152602001908152602001600020546114099190611d5e565b9050809350505050919050565b6000600c60008373ffffffffffffffffffffffffffffffffffffffff1673ffffffffffffffffffffffffffffffffffffffff168152602001908152602001600020549050919050565b6000600c60003373ffffffffffffffffffffffffffffffffffffffff1673ffffffffffffffffffffffffffffffffffffffff1681526020019081526020016000208190555080600460008282546114b69190611d5e565b92505081905550600360009054906101000a900473ffffffffffffffffffffffffffffffffffffffff1673ffffffffffffffffffffffffffffffffffffffff166323b872dd3330846040518463ffffffff1660e01b815260040161151c93929190611db4565b602060405180830381600087803b15801561153657600080fd5b505af115801561154a573d6000803e3d6000fd5b505050506040513d601f19601f8201168201806040525081019061156e9190611e17565b506000600b60003373ffffffffffffffffffffffffffffffffffffffff1673ffffffffffffffffffffffffffffffffffffffff168152602001908152602001600020549050600260009054906101000a900473ffffffffffffffffffffffffffffffffffffffff1673ffffffffffffffffffffffffffffffffffffffff1663a9059cbb33836040518363ffffffff1660e01b8152600401611610929190611f05565b602060405180830381600087803b15801561162a57600080fd5b505af115801561163e573d6000803e3d6000fd5b505050506040513d601f19601f820116820180604052508101906116629190611e17565b506000600b60003373ffffffffffffffffffffffffffffffffffffffff1673ffffffffffffffffffffffffffffffffffffffff168152602001908152602001600020819055503373ffffffffffffffffffffffffffffffffffffffff167f432f2abeedfc213d8be3c057e2598a48526e403d2da2cfedd0ae185930f3c202836040516116ee9190611a38565b60405180910390a25050565b600360009054906101000a900473ffffffffffffffffffffffffffffffffffffffff1681565b6000600260009054906101000a900473ffffffffffffffffffffffffffffffffffffffff1673ffffffffffffffffffffffffffffffffffffffff166370a08231306040518263ffffffff1660e01b815260040161177d9190611c55565b60206040518083038186803b15801561179557600080fd5b505afa1580156117a9573d6000803e3d6000fd5b505050506040513d601f19601f820116820180604052508101906117cd9190611c85565b905090565b600081600360009054906101000a900473ffffffffffffffffffffffffffffffffffffffff1673ffffffffffffffffffffffffffffffffffffffff166370a08231336040518263ffffffff1660e01b81526004016118309190611c55565b60206040518083038186803b15801561184857600080fd5b505afa15801561185c573d6000803e3d6000fd5b505050506040513d601f19601f820116820180604052508101906118809190611c85565b116118c0576040517f08c379a00000000000000000000000000000000000000000000000000000000081526004016118b790612196565b60405180910390fd5b6000603c600e60003373ffffffffffffffffffffffffffffffffffffffff1673ffffffffffffffffffffffffffffffffffffffff168152602001908152602001600020544261190f9190611ed1565b6119199190612053565b9050600062080520620186a083600754670de0b6b3a76400008861193d9190612053565b61194791906120f0565b61195191906120f0565b61195b91906120f0565b6119659190612053565b9050600081600c60003373ffffffffffffffffffffffffffffffffffffffff1673ffffffffffffffffffffffffffffffffffffffff168152602001908152602001600020546119b49190611d5e565b9050809350505050919050565b600080fd5b6000819050919050565b6119d9816119c6565b81146119e457600080fd5b50565b6000813590506119f6816119d0565b92915050565b600060208284031215611a1257611a116119c1565b5b6000611a20848285016119e7565b91505092915050565b611a32816119c6565b82525050565b6000602082019050611a4d6000830184611a29565b92915050565b600073ffffffffffffffffffffffffffffffffffffffff82169050919050565b6000611a7e82611a53565b9050919050565b611a8e81611a73565b8114611a9957600080fd5b50565b600081359050611aab81611a85565b92915050565b600060208284031215611ac757611ac66119c1565b5b6000611ad584828501611a9c565b91505092915050565b60008060408385031215611af557611af46119c1565b5b6000611b0385828601611a9c565b9250506020611b14858286016119e7565b9150509250929050565b6000819050919050565b6000611b43611b3e611b3984611a53565b611b1e565b611a53565b9050919050565b6000611b5582611b28565b9050919050565b6000611b6782611b4a565b9050919050565b611b7781611b5c565b82525050565b6000602082019050611b926000830184611b6e565b92915050565b60008115159050919050565b611bad81611b98565b82525050565b6000602082019050611bc86000830184611ba4565b92915050565b6000611bd982611b4a565b9050919050565b611be981611bce565b82525050565b6000602082019050611c046000830184611be0565b92915050565b6000611c1582611b4a565b9050919050565b611c2581611c0a565b82525050565b6000602082019050611c406000830184611c1c565b92915050565b611c4f81611a73565b82525050565b6000602082019050611c6a6000830184611c46565b92915050565b600081519050611c7f816119d0565b92915050565b600060208284031215611c9b57611c9a6119c1565b5b6000611ca984828501611c70565b91505092915050565b600082825260208201905092915050565b7f596f75206861766520696e73756666696369656e742045494e52000000000000600082015250565b6000611cf9601a83611cb2565b9150611d0482611cc3565b602082019050919050565b60006020820190508181036000830152611d2881611cec565b9050919050565b7f4e487b7100000000000000000000000000000000000000000000000000000000600052601160045260246000fd5b6000611d69826119c6565b9150611d74836119c6565b9250827fffffffffffffffffffffffffffffffffffffffffffffffffffffffffffffffff03821115611da957611da8611d2f565b5b828201905092915050565b6000606082019050611dc96000830186611c46565b611dd66020830185611c46565b611de36040830184611a29565b949350505050565b611df481611b98565b8114611dff57600080fd5b50565b600081519050611e1181611deb565b92915050565b600060208284031215611e2d57611e2c6119c1565b5b6000611e3b84828501611e02565b91505092915050565b6000604082019050611e596000830185611a29565b611e666020830184611a29565b9392505050565b6000819050919050565b6000611e92611e8d611e8884611e6d565b611b1e565b6119c6565b9050919050565b611ea281611e77565b82525050565b6000604082019050611ebd6000830185611c46565b611eca6020830184611e99565b9392505050565b6000611edc826119c6565b9150611ee7836119c6565b925082821015611efa57611ef9611d2f565b5b828203905092915050565b6000604082019050611f1a6000830185611c46565b611f276020830184611a29565b9392505050565b6000819050919050565b6000611f53611f4e611f4984611f2e565b611b1e565b6119c6565b9050919050565b611f6381611f38565b82525050565b6000604082019050611f7e6000830185611c46565b611f8b6020830184611f5a565b9392505050565b7f796f75206861766520696e73756666696369656e742045476f6c6420746f6b6560008201527f6e00000000000000000000000000000000000000000000000000000000000000602082015250565b6000611fee602183611cb2565b9150611ff982611f92565b604082019050919050565b6000602082019050818103600083015261201d81611fe1565b9050919050565b7f4e487b7100000000000000000000000000000000000000000000000000000000600052601260045260246000fd5b600061205e826119c6565b9150612069836119c6565b92508261207957612078612024565b5b828204905092915050565b7f416d6f756e742073686f756c64206e6f74206265203000000000000000000000600082015250565b60006120ba601683611cb2565b91506120c582612084565b602082019050919050565b600060208201905081810360008301526120e9816120ad565b9050919050565b60006120fb826119c6565b9150612106836119c6565b9250817fffffffffffffffffffffffffffffffffffffffffffffffffffffffffffffffff048311821515161561213f5761213e611d2f565b5b828202905092915050565b7f796f75206861766520696e73756666696369656e742062616c616e6365000000600082015250565b6000612180601d83611cb2565b915061218b8261214a565b602082019050919050565b600060208201905081810360008301526121af81612173565b905091905056fea26469706673582212200c4cb5860f290e18dedc460402f82ab1f20936130b3e8bd52848e2c3e97ce9c464736f6c63430008080033",
  "immutableReferences": {},
  "source": "// SPDX-License-Identifier: MIT\n\npragma solidity 0.8.8;\n\nimport \"./LPToken.sol\";\nimport \"./EGoldToken.sol\";\nimport \"./EINRToken.sol\";\n//import \"hardhat/console.sol\";\n\n\nerror TransferFailed();\n\ncontract LendingPool{\n    //address of owner of this contract\n    address payable admin;\n    //instance of Lptoken\n    LPToken public lpToken;\n    //instance of EGoldToken\n    EGoldToken public eGoldToken;\n    //instance of EINRToken\n    EINRToken public eINRToken;\n    //total supply of EINR in lending pool\n    uint256 public totalSupply;\n\n    \n\n    uint256 thresholdLimitBorrow = 1500 * 10 ** 18;\n    uint256 thresholdLimitLender = 1000 * 10 ** 18;\n\n    uint public interestRateBorrower = 1000; //10% for borrower\n    uint256 public interestRateLender = 800; //8% for lender \n    uint256 public interestRateCommission = 200; //2%  application fee commission\n\n   \n    mapping(address => uint256)public balanceOfEINR;\n\n    mapping(address => uint256)public balanceOfEGold;\n\n    mapping(address => uint256)public borrowEINRAmount;\n\n    mapping(address => uint256)public depositStartTime;\n\n    mapping(address => uint256)public borrowedTime;\n\n    mapping(address =>bool) public usersKYCchecks;\n    \n    event Deposited(address indexed account, uint256 eINRamount, uint256 startDepositTime);\n    event Withdrawed(address indexed account, uint256 amount);\n    event Borrowedloan(address indexed account,uint256 amount, uint256 startBorrowTime);\n    event Repayedloan(address indexed account, uint256 amount);\n\n    constructor(address _eINRToken, address _eGoldToken, address _lpToken) {\n        admin = payable(msg.sender);\n        eINRToken = EINRToken(_eINRToken);\n        eGoldToken = EGoldToken(_eGoldToken);\n        lpToken = LPToken(_lpToken);       \n    }\n\n    function checkKYCForUsers(address account,uint256 _amount)public \n    {\n        if(_amount >thresholdLimitLender && _amount > thresholdLimitBorrow){\n            usersKYCchecks[account]= true;\n        }else{\n            usersKYCchecks[account]= false;\n        }\n    }\n\n    function depositeINRToken(uint256 _EINRamount) external{\n        checkKYCForUsers(msg.sender, _EINRamount);\n        require(_EINRamount > 0 && eINRToken.balanceOf(msg.sender) >= _EINRamount,\"You have insufficient EINR\");\n        depositStartTime[msg.sender] = block.timestamp; \n        balanceOfEINR[msg.sender] += _EINRamount;\n        totalSupply += _EINRamount;\n        \n        eINRToken.transferFrom(msg.sender, address(this), _EINRamount);\n        \n        emit Deposited(msg.sender, _EINRamount, block.timestamp);\n        //get lP token as a proof of receipt \n        lpToken.mint(msg.sender,10000 * 1e18);\n    }\n\n    function getAmountWithInterest(uint256 _EINRamount)public view returns(uint256){\n       require(_EINRamount > 0 && balanceOfEINR[msg.sender] == _EINRamount , \"Amount should not be 0\");\n       uint256 periodLock = (block.timestamp - depositStartTime[msg.sender])/ 60;\n        //console.log(periodLock, \"Get the deposit lock time here\");\n       uint256 interestGain = (((_EINRamount/1e18) * interestRateLender * periodLock )*1e5/ (365 * 24 * 60));\n      // console.log(interestGain, \"Interest Gain Per min\");\n       uint256 withdrawAmount = balanceOfEINR[msg.sender] + interestGain;\n       //console.log(withdrawAmount, \"Amount calculated for Investor with Interest\");\n       return (withdrawAmount);\n    }\n\n\n    //with 8% interest given to investor\n    function withDrawEINRToken(uint256 amountToWithdraw) external{\n        balanceOfEINR[msg.sender] = 0;\n        totalSupply -= amountToWithdraw;\n        eINRToken.transfer(msg.sender, amountToWithdraw);\n        emit Withdrawed(msg.sender, amountToWithdraw);\n        //lp token burnt after withdraw\n        lpToken.burn(msg.sender, 1000 * 1e18);\n        \n    }\n    \n    function borrowEINRLoan(uint256 _collateralAmount) external{\n        require(eGoldToken.balanceOf(msg.sender) >= _collateralAmount, \"you have insufficient EGold token\");\n        borrowedTime[msg.sender] = block.timestamp;\n        balanceOfEGold[msg.sender] += _collateralAmount;// track the amount given as collateral\n        eGoldToken.transferFrom(msg.sender, address(this), _collateralAmount); //2000 Egold token \n        uint256 EINRamount = _collateralAmount / 2; //loan borrowed is half the price of collateral\n        checkKYCForUsers(msg.sender, EINRamount);\n        totalSupply -= EINRamount;\n        eINRToken.transfer(msg.sender, EINRamount);  \n\n        borrowEINRAmount[msg.sender] += EINRamount;\n        // event emitted    \n        emit Borrowedloan(msg.sender, EINRamount, block.timestamp);\n\n    }\n\n    // function interestCalculation(uint256 _EINRamount) public view {\n    //     uint256 interestY = (((_EINRamount/10**18)* interestRateLender * 1)* 1e3 /(365 * 24 * 60));// interest for lender\n    //     console.log(interestY, \"8 % interest calculated for Lenders\");\n    //     uint256 interestX = (((_EINRamount/10**18) * interestRateCommission * 1)* 1e3 /(365 * 24 * 60 ));\n    //     console.log(interestX, \" 2% interest calculated for contract fee\");\n    //     //admin.transfer(interestX);//response\n    //     uint256 totalinterest = interestY + interestX;\n    //     console.log(totalinterest, \"check 10% here\");\n    // }\n\n\n    function getborrowerRepayAmount(uint256 _EINRamount)public view returns(uint256){\n        require(eINRToken.balanceOf(msg.sender) > _EINRamount,\"you have insufficient balance\");\n        uint256 dueTime = (block.timestamp - borrowedTime[msg.sender])/60; \n        //console.log(dueTime, \"Get the loan time here\");\n        uint256 interestToRepay = (((_EINRamount/1e18)* interestRateBorrower * dueTime)* 1e5 /(365 * 24 * 60));// interest for lender\n        uint256 repayAmount = borrowEINRAmount[msg.sender] + interestToRepay;//interest added\n        //console.log(repayAmount, \"Amount to be paid by with Interest to the contract\");\n        return (repayAmount);\n    }\n    \n    function repayEINRLoan(uint256 repayAmount)external {\n        //require(amountToRepay == totalAmountPray , \"User has insufficient Balance to repay the loan\");\n        borrowEINRAmount[msg.sender]= 0;//deduct the borrow amount from mapping borrow user mapping\n        totalSupply += repayAmount ;\n        eINRToken.transferFrom(msg.sender ,address(this), repayAmount);\n        uint256 repayCollateral = balanceOfEGold[msg.sender];\n        eGoldToken.transfer(msg.sender, repayCollateral);\n        balanceOfEGold[msg.sender]= 0;\n        //event emitted\n        emit Repayedloan(msg.sender, repayAmount);\n    }\n    \n    function getTotalOfSupplyEINRPool() public view returns(uint256){\n        return (totalSupply);\n    }\n\n    function getTotalOfBalanceEINR() public view returns(uint256){\n        return(eINRToken.balanceOf(address(this)));\n    }\n\n    function getTotalBalanceEGold() public view returns(uint256){\n        return(eGoldToken.balanceOf(address(this)));\n    }\n\n    function getOwnerDepositEINRBalance(address account) public view returns(uint256) {\n        return balanceOfEINR[account];\n    }\n\n    function getOwnerEGoldBalance(address account) public view returns(uint256){\n        return balanceOfEGold[account];\n    }\n\n    function getBorrowEINRAmount(address account) public view returns(uint256){\n        return borrowEINRAmount[account];\n    }\n\n    function getBalanceOfLPtoken(address account) public view returns(uint256){\n        return lpToken.balanceOf(account);\n    }\n\n}\n",
  "sourcePath": "/home/neosoft/project/Defi_lending_POC/Solidity_contracts/contracts/LendingPool.sol",
  "compiler": {
    "name": "solc",
    "version": "0.8.8+commit.dddeac2f.Emscripten.clang"
  },
  "schemaVersion": "3.4.11",
  "updatedAt": "2023-02-14T11:10:27.907Z",
  "networkType": "ethereum",
  "devdoc": {
    "kind": "dev",
    "methods": {},
    "version": 1
  },
  "userdoc": {
    "kind": "user",
    "methods": {},
    "version": 1
  }
}