{
  "contractName": "LendingPool",
  "abi": [
    {
      "inputs": [
        {
          "internalType": "address",
          "name": "_eINRToken",
          "type": "address"
        },
        {
          "internalType": "address",
          "name": "_eGoldToken",
          "type": "address"
        },
        {
          "internalType": "address",
          "name": "_lpToken",
          "type": "address"
        }
      ],
      "stateMutability": "nonpayable",
      "type": "constructor"
    },
    {
      "anonymous": false,
      "inputs": [
        {
          "indexed": true,
          "internalType": "address",
          "name": "account",
          "type": "address"
        },
        {
          "indexed": false,
          "internalType": "uint256",
          "name": "amount",
          "type": "uint256"
        },
        {
          "indexed": false,
          "internalType": "uint256",
          "name": "startBorrowTime",
          "type": "uint256"
        }
      ],
      "name": "Borrowedloan",
      "type": "event"
    },
    {
      "anonymous": false,
      "inputs": [
        {
          "indexed": true,
          "internalType": "address",
          "name": "account",
          "type": "address"
        },
        {
          "indexed": false,
          "internalType": "uint256",
          "name": "eINRamount",
          "type": "uint256"
        },
        {
          "indexed": false,
          "internalType": "uint256",
          "name": "startDepositTime",
          "type": "uint256"
        }
      ],
      "name": "Deposited",
      "type": "event"
    },
    {
      "anonymous": false,
      "inputs": [
        {
          "indexed": true,
          "internalType": "address",
          "name": "account",
          "type": "address"
        },
        {
          "indexed": false,
          "internalType": "uint256",
          "name": "amount",
          "type": "uint256"
        }
      ],
      "name": "Repayedloan",
      "type": "event"
    },
    {
      "anonymous": false,
      "inputs": [
        {
          "indexed": true,
          "internalType": "address",
          "name": "account",
          "type": "address"
        },
        {
          "indexed": false,
          "internalType": "uint256",
          "name": "amount",
          "type": "uint256"
        }
      ],
      "name": "Withdrawed",
      "type": "event"
    },
    {
      "inputs": [
        {
          "internalType": "address",
          "name": "",
          "type": "address"
        }
      ],
      "name": "balanceOfEGold",
      "outputs": [
        {
          "internalType": "uint256",
          "name": "",
          "type": "uint256"
        }
      ],
      "stateMutability": "view",
      "type": "function",
      "constant": true
    },
    {
      "inputs": [
        {
          "internalType": "address",
          "name": "",
          "type": "address"
        }
      ],
      "name": "balanceOfEINR",
      "outputs": [
        {
          "internalType": "uint256",
          "name": "",
          "type": "uint256"
        }
      ],
      "stateMutability": "view",
      "type": "function",
      "constant": true
    },
    {
      "inputs": [
        {
          "internalType": "address",
          "name": "",
          "type": "address"
        }
      ],
      "name": "borrowEINRAmount",
      "outputs": [
        {
          "internalType": "uint256",
          "name": "",
          "type": "uint256"
        }
      ],
      "stateMutability": "view",
      "type": "function",
      "constant": true
    },
    {
      "inputs": [
        {
          "internalType": "address",
          "name": "",
          "type": "address"
        }
      ],
      "name": "borrowedTime",
      "outputs": [
        {
          "internalType": "uint256",
          "name": "",
          "type": "uint256"
        }
      ],
      "stateMutability": "view",
      "type": "function",
      "constant": true
    },
    {
      "inputs": [
        {
          "internalType": "address",
          "name": "",
          "type": "address"
        }
      ],
      "name": "depositStartTime",
      "outputs": [
        {
          "internalType": "uint256",
          "name": "",
          "type": "uint256"
        }
      ],
      "stateMutability": "view",
      "type": "function",
      "constant": true
    },
    {
      "inputs": [],
      "name": "eGoldToken",
      "outputs": [
        {
          "internalType": "contract EGoldToken",
          "name": "",
          "type": "address"
        }
      ],
      "stateMutability": "view",
      "type": "function",
      "constant": true
    },
    {
      "inputs": [],
      "name": "eINRToken",
      "outputs": [
        {
          "internalType": "contract EINRToken",
          "name": "",
          "type": "address"
        }
      ],
      "stateMutability": "view",
      "type": "function",
      "constant": true
    },
    {
      "inputs": [],
      "name": "interestRateBorrower",
      "outputs": [
        {
          "internalType": "uint256",
          "name": "",
          "type": "uint256"
        }
      ],
      "stateMutability": "view",
      "type": "function",
      "constant": true
    },
    {
      "inputs": [],
      "name": "interestRateContract",
      "outputs": [
        {
          "internalType": "uint256",
          "name": "",
          "type": "uint256"
        }
      ],
      "stateMutability": "view",
      "type": "function",
      "constant": true
    },
    {
      "inputs": [],
      "name": "interestRateLender",
      "outputs": [
        {
          "internalType": "uint256",
          "name": "",
          "type": "uint256"
        }
      ],
      "stateMutability": "view",
      "type": "function",
      "constant": true
    },
    {
      "inputs": [],
      "name": "lpToken",
      "outputs": [
        {
          "internalType": "contract LPToken",
          "name": "",
          "type": "address"
        }
      ],
      "stateMutability": "view",
      "type": "function",
      "constant": true
    },
    {
      "inputs": [],
      "name": "totalSupply",
      "outputs": [
        {
          "internalType": "uint256",
          "name": "",
          "type": "uint256"
        }
      ],
      "stateMutability": "view",
      "type": "function",
      "constant": true
    },
    {
      "inputs": [
        {
          "internalType": "address",
          "name": "",
          "type": "address"
        }
      ],
      "name": "userRepayAmount",
      "outputs": [
        {
          "internalType": "uint256",
          "name": "",
          "type": "uint256"
        }
      ],
      "stateMutability": "view",
      "type": "function",
      "constant": true
    },
    {
      "inputs": [
        {
          "internalType": "address",
          "name": "",
          "type": "address"
        }
      ],
      "name": "usersKYCchecks",
      "outputs": [
        {
          "internalType": "bool",
          "name": "",
          "type": "bool"
        }
      ],
      "stateMutability": "view",
      "type": "function",
      "constant": true
    },
    {
      "inputs": [
        {
          "internalType": "address",
          "name": "account",
          "type": "address"
        },
        {
          "internalType": "uint256",
          "name": "_amount",
          "type": "uint256"
        }
      ],
      "name": "checkKYCForUsers",
      "outputs": [
        {
          "internalType": "bool",
          "name": "",
          "type": "bool"
        }
      ],
      "stateMutability": "nonpayable",
      "type": "function"
    },
    {
      "inputs": [
        {
          "internalType": "uint256",
          "name": "_EINRamount",
          "type": "uint256"
        }
      ],
      "name": "depositeINRToken",
      "outputs": [],
      "stateMutability": "nonpayable",
      "type": "function"
    },
    {
      "inputs": [],
      "name": "getAmountWithInterest",
      "outputs": [
        {
          "internalType": "uint256",
          "name": "",
          "type": "uint256"
        }
      ],
      "stateMutability": "view",
      "type": "function",
      "constant": true
    },
    {
      "inputs": [
        {
          "internalType": "uint256",
          "name": "amountToWithdraw",
          "type": "uint256"
        }
      ],
      "name": "withDrawEINRToken",
      "outputs": [],
      "stateMutability": "nonpayable",
      "type": "function"
    },
    {
      "inputs": [
        {
          "internalType": "uint256",
          "name": "_collateralAmount",
          "type": "uint256"
        }
      ],
      "name": "calculatedEINRloan",
      "outputs": [
        {
          "internalType": "uint256",
          "name": "",
          "type": "uint256"
        }
      ],
      "stateMutability": "view",
      "type": "function",
      "constant": true
    },
    {
      "inputs": [
        {
          "internalType": "uint256",
          "name": "_collateralAmount",
          "type": "uint256"
        }
      ],
      "name": "borrowEINRLoan",
      "outputs": [],
      "stateMutability": "nonpayable",
      "type": "function"
    },
    {
      "inputs": [],
      "name": "getborrowerRepayAmount",
      "outputs": [
        {
          "internalType": "uint256",
          "name": "",
          "type": "uint256"
        }
      ],
      "stateMutability": "nonpayable",
      "type": "function"
    },
    {
      "inputs": [
        {
          "internalType": "uint256",
          "name": "finalRepayAmount",
          "type": "uint256"
        }
      ],
      "name": "repayEINRLoan",
      "outputs": [],
      "stateMutability": "nonpayable",
      "type": "function"
    },
    {
      "inputs": [],
      "name": "getTotalOfSupplyEINRPool",
      "outputs": [
        {
          "internalType": "uint256",
          "name": "",
          "type": "uint256"
        }
      ],
      "stateMutability": "view",
      "type": "function",
      "constant": true
    },
    {
      "inputs": [],
      "name": "getTotalOfBalanceEINR",
      "outputs": [
        {
          "internalType": "uint256",
          "name": "",
          "type": "uint256"
        }
      ],
      "stateMutability": "view",
      "type": "function",
      "constant": true
    },
    {
      "inputs": [],
      "name": "getTotalBalanceEGold",
      "outputs": [
        {
          "internalType": "uint256",
          "name": "",
          "type": "uint256"
        }
      ],
      "stateMutability": "view",
      "type": "function",
      "constant": true
    },
    {
      "inputs": [
        {
          "internalType": "address",
          "name": "account",
          "type": "address"
        }
      ],
      "name": "getOwnerDepositEINRBalance",
      "outputs": [
        {
          "internalType": "uint256",
          "name": "",
          "type": "uint256"
        }
      ],
      "stateMutability": "view",
      "type": "function",
      "constant": true
    },
    {
      "inputs": [
        {
          "internalType": "address",
          "name": "account",
          "type": "address"
        }
      ],
      "name": "getOwnerEGoldBalance",
      "outputs": [
        {
          "internalType": "uint256",
          "name": "",
          "type": "uint256"
        }
      ],
      "stateMutability": "view",
      "type": "function",
      "constant": true
    },
    {
      "inputs": [
        {
          "internalType": "address",
          "name": "account",
          "type": "address"
        }
      ],
      "name": "getBorrowEINRAmount",
      "outputs": [
        {
          "internalType": "uint256",
          "name": "",
          "type": "uint256"
        }
      ],
      "stateMutability": "view",
      "type": "function",
      "constant": true
    },
    {
      "inputs": [
        {
          "internalType": "address",
          "name": "account",
          "type": "address"
        }
      ],
      "name": "getBalanceOfLPtoken",
      "outputs": [
        {
          "internalType": "uint256",
          "name": "",
          "type": "uint256"
        }
      ],
      "stateMutability": "view",
      "type": "function",
      "constant": true
    },
    {
      "inputs": [
        {
          "internalType": "address",
          "name": "account",
          "type": "address"
        }
      ],
      "name": "getUserRepayAmount",
      "outputs": [
        {
          "internalType": "uint256",
          "name": "",
          "type": "uint256"
        }
      ],
      "stateMutability": "view",
      "type": "function",
      "constant": true
    }
  ],
  "bytecode": "0x608060405273a81a0b8f163eae6e4265964bc2b8975c44119b4b600560006101000a81548173ffffffffffffffffffffffffffffffffffffffff021916908373ffffffffffffffffffffffffffffffffffffffff160217905550685150ae84a8cdf00000600655683635c9adc5dea000006007556103e860085561032060095560c8600a553480156200009157600080fd5b5060405162002796380380620027968339818101604052810190620000b791906200022d565b336000806101000a81548173ffffffffffffffffffffffffffffffffffffffff021916908373ffffffffffffffffffffffffffffffffffffffff16021790555082600360006101000a81548173ffffffffffffffffffffffffffffffffffffffff021916908373ffffffffffffffffffffffffffffffffffffffff16021790555081600260006101000a81548173ffffffffffffffffffffffffffffffffffffffff021916908373ffffffffffffffffffffffffffffffffffffffff16021790555080600160006101000a81548173ffffffffffffffffffffffffffffffffffffffff021916908373ffffffffffffffffffffffffffffffffffffffff16021790555050505062000289565b600080fd5b600073ffffffffffffffffffffffffffffffffffffffff82169050919050565b6000620001f582620001c8565b9050919050565b6200020781620001e8565b81146200021357600080fd5b50565b6000815190506200022781620001fc565b92915050565b600080600060608486031215620002495762000248620001c3565b5b6000620002598682870162000216565b93505060206200026c8682870162000216565b92505060406200027f8682870162000216565b9150509250925092565b6124fd80620002996000396000f3fe608060405234801561001057600080fd5b50600436106101da5760003560e01c806371f07e5c11610104578063a657f2fd116100a2578063dcd63b9211610071578063dcd63b92146105bb578063ef365610146105d9578063f0be087b146105f7578063f3ba6c7314610627576101da565b8063a657f2fd14610521578063ac22a7e314610551578063b165346114610581578063cf32f42f1461059d576101da565b8063850bab7e116100de578063850bab7e146104855780638a76a112146104a35780639d06d413146104d3578063a1c6502e14610503576101da565b806371f07e5c146104195780637d53dec11461043757806382ddc10014610467576101da565b80634d68086b1161017c57806356c76f391161014b57806356c76f391461036b5780635fcbd2851461039b578063641be7f2146103b95780636a4555aa146103e9576101da565b80634d68086b146102d15780634f058743146102ed5780635534ef011461030b578063555b7b851461033b576101da565b80631d8c1180116101b85780631d8c1180146102375780631f928133146102675780632f7ca05914610283578063433c7151146102b3576101da565b806305187e83146101df5780631548ceca146101fd57806318160ddd14610219575b600080fd5b6101e7610657565b6040516101f49190611d43565b60405180910390f35b61021760048036038101906102129190611d8f565b6107ea565b005b610221610b73565b60405161022e9190611d43565b60405180910390f35b610251600480360381019061024c9190611e1a565b610b79565b60405161025e9190611d43565b60405180910390f35b610281600480360381019061027c9190611d8f565b610c32565b005b61029d60048036038101906102989190611e1a565b610ea8565b6040516102aa9190611d43565b60405180910390f35b6102bb610ef6565b6040516102c89190611d43565b60405180910390f35b6102eb60048036038101906102e69190611d8f565b610f00565b005b6102f56112c8565b6040516103029190611d43565b60405180910390f35b61032560048036038101906103209190611e1a565b61137f565b6040516103329190611d43565b60405180910390f35b61035560048036038101906103509190611e47565b611397565b6040516103629190611ea2565b60405180910390f35b61038560048036038101906103809190611e1a565b61146e565b6040516103929190611d43565b60405180910390f35b6103a3611486565b6040516103b09190611f1c565b60405180910390f35b6103d360048036038101906103ce9190611e1a565b6114ac565b6040516103e09190611ea2565b60405180910390f35b61040360048036038101906103fe9190611e1a565b6114cc565b6040516104109190611d43565b60405180910390f35b6104216114e4565b60405161042e9190611d43565b60405180910390f35b610451600480360381019061044c9190611e1a565b6114ea565b60405161045e9190611d43565b60405180910390f35b61046f611502565b60405161047c9190611d43565b60405180910390f35b61048d611508565b60405161049a9190611d43565b60405180910390f35b6104bd60048036038101906104b89190611e1a565b61150e565b6040516104ca9190611d43565b60405180910390f35b6104ed60048036038101906104e89190611e1a565b611526565b6040516104fa9190611d43565b60405180910390f35b61050b61153e565b6040516105189190611f58565b60405180910390f35b61053b60048036038101906105369190611e1a565b611564565b6040516105489190611d43565b60405180910390f35b61056b60048036038101906105669190611e1a565b6115b2565b6040516105789190611d43565b60405180910390f35b61059b60048036038101906105969190611d8f565b611600565b005b6105a5611aa7565b6040516105b29190611d43565b60405180910390f35b6105c3611be4565b6040516105d09190611f94565b60405180910390f35b6105e1611c0a565b6040516105ee9190611d43565b60405180910390f35b610611600480360381019061060c9190611e1a565b611cc1565b60405161061e9190611d43565b60405180910390f35b610641600480360381019061063c9190611d8f565b611d0f565b60405161064e9190611d43565b60405180910390f35b600080603c600f60003373ffffffffffffffffffffffffffffffffffffffff1673ffffffffffffffffffffffffffffffffffffffff16815260200190815260200160002054426106a79190611fde565b6106b19190612041565b9050600062080520600a83600854670de0b6b3a7640000600d60003373ffffffffffffffffffffffffffffffffffffffff1673ffffffffffffffffffffffffffffffffffffffff168152602001908152602001600020546107129190612041565b61071c9190612072565b6107269190612072565b6107309190612072565b61073a9190612041565b9050600081600d60003373ffffffffffffffffffffffffffffffffffffffff1673ffffffffffffffffffffffffffffffffffffffff1681526020019081526020016000205461078991906120cc565b905080601160003373ffffffffffffffffffffffffffffffffffffffff1673ffffffffffffffffffffffffffffffffffffffff16815260200190815260200160002060008282546107da91906120cc565b9250508190555080935050505090565b6107f43382611397565b610833576040517f08c379a000000000000000000000000000000000000000000000000000000000815260040161082a9061217f565b60405180910390fd5b6000811180156108ed575080600360009054906101000a900473ffffffffffffffffffffffffffffffffffffffff1673ffffffffffffffffffffffffffffffffffffffff166370a08231336040518263ffffffff1660e01b815260040161089a91906121ae565b60206040518083038186803b1580156108b257600080fd5b505afa1580156108c6573d6000803e3d6000fd5b505050506040513d601f19601f820116820180604052508101906108ea91906121de565b10155b61092c576040517f08c379a000000000000000000000000000000000000000000000000000000000815260040161092390612257565b60405180910390fd5b80600b60003373ffffffffffffffffffffffffffffffffffffffff1673ffffffffffffffffffffffffffffffffffffffff168152602001908152602001600020600082825461097b91906120cc565b92505081905550600360009054906101000a900473ffffffffffffffffffffffffffffffffffffffff1673ffffffffffffffffffffffffffffffffffffffff166323b872dd3330846040518463ffffffff1660e01b81526004016109e193929190612277565b602060405180830381600087803b1580156109fb57600080fd5b505af1158015610a0f573d6000803e3d6000fd5b505050506040513d601f19601f82011682018060405250810190610a3391906122da565b5042600e60003373ffffffffffffffffffffffffffffffffffffffff1673ffffffffffffffffffffffffffffffffffffffff168152602001908152602001600020819055508060046000828254610a8a91906120cc565b925050819055503373ffffffffffffffffffffffffffffffffffffffff167f73a19dd210f1a7f902193214c0ee91dd35ee5b4d920cba8d519eca65a7b488ca8242604051610ad9929190612307565b60405180910390a2600160009054906101000a900473ffffffffffffffffffffffffffffffffffffffff1673ffffffffffffffffffffffffffffffffffffffff166340c10f1933836040518363ffffffff1660e01b8152600401610b3e929190612330565b600060405180830381600087803b158015610b5857600080fd5b505af1158015610b6c573d6000803e3d6000fd5b5050505050565b60045481565b600080600160009054906101000a900473ffffffffffffffffffffffffffffffffffffffff1673ffffffffffffffffffffffffffffffffffffffff166370a08231846040518263ffffffff1660e01b8152600401610bd791906121ae565b60206040518083038186803b158015610bef57600080fd5b505afa158015610c03573d6000803e3d6000fd5b505050506040513d601f19601f82011682018060405250810190610c2791906121de565b905080915050919050565b600360009054906101000a900473ffffffffffffffffffffffffffffffffffffffff1673ffffffffffffffffffffffffffffffffffffffff1663a9059cbb33836040518363ffffffff1660e01b8152600401610c8f929190612330565b602060405180830381600087803b158015610ca957600080fd5b505af1158015610cbd573d6000803e3d6000fd5b505050506040513d601f19601f82011682018060405250810190610ce191906122da565b508060046000828254610cf49190611fde565b925050819055503373ffffffffffffffffffffffffffffffffffffffff167f6cca423c6ffc06e62a0acc433965e074b11c28479b0449250ce3ff65ac9e39fe82604051610d419190611d43565b60405180910390a2600160009054906101000a900473ffffffffffffffffffffffffffffffffffffffff1673ffffffffffffffffffffffffffffffffffffffff16639dc29fac33600b60003373ffffffffffffffffffffffffffffffffffffffff1673ffffffffffffffffffffffffffffffffffffffff168152602001908152602001600020546040518363ffffffff1660e01b8152600401610de5929190612330565b600060405180830381600087803b158015610dff57600080fd5b505af1158015610e13573d6000803e3d6000fd5b5050505080600b60003373ffffffffffffffffffffffffffffffffffffffff1673ffffffffffffffffffffffffffffffffffffffff16815260200190815260200160002054610e629190611fde565b600b60003373ffffffffffffffffffffffffffffffffffffffff1673ffffffffffffffffffffffffffffffffffffffff1681526020019081526020016000208190555050565b600080600c60008473ffffffffffffffffffffffffffffffffffffffff1673ffffffffffffffffffffffffffffffffffffffff16815260200190815260200160002054905080915050919050565b6000600454905090565b80600260009054906101000a900473ffffffffffffffffffffffffffffffffffffffff1673ffffffffffffffffffffffffffffffffffffffff166370a08231336040518263ffffffff1660e01b8152600401610f5c91906121ae565b60206040518083038186803b158015610f7457600080fd5b505afa158015610f88573d6000803e3d6000fd5b505050506040513d601f19601f82011682018060405250810190610fac91906121de565b1015610fed576040517f08c379a0000000000000000000000000000000000000000000000000000000008152600401610fe4906123cb565b60405180910390fd5b80600c60003373ffffffffffffffffffffffffffffffffffffffff1673ffffffffffffffffffffffffffffffffffffffff168152602001908152602001600020600082825461103c91906120cc565b92505081905550600260009054906101000a900473ffffffffffffffffffffffffffffffffffffffff1673ffffffffffffffffffffffffffffffffffffffff166323b872dd3330846040518463ffffffff1660e01b81526004016110a293929190612277565b602060405180830381600087803b1580156110bc57600080fd5b505af11580156110d0573d6000803e3d6000fd5b505050506040513d601f19601f820116820180604052508101906110f491906122da565b5060006002826111049190612041565b90506111103382611397565b5080600460008282546111239190611fde565b92505081905550600360009054906101000a900473ffffffffffffffffffffffffffffffffffffffff1673ffffffffffffffffffffffffffffffffffffffff1663a9059cbb33836040518363ffffffff1660e01b8152600401611187929190612330565b602060405180830381600087803b1580156111a157600080fd5b505af11580156111b5573d6000803e3d6000fd5b505050506040513d601f19601f820116820180604052508101906111d991906122da565b5042600f60003373ffffffffffffffffffffffffffffffffffffffff1673ffffffffffffffffffffffffffffffffffffffff1681526020019081526020016000208190555080600d60003373ffffffffffffffffffffffffffffffffffffffff1673ffffffffffffffffffffffffffffffffffffffff168152602001908152602001600020600082825461126d91906120cc565b925050819055503373ffffffffffffffffffffffffffffffffffffffff167fd2b239deadbcb4baadbd0bef2a0d20d76becb200e80e43099a538d430b2ea02882426040516112bc929190612307565b60405180910390a25050565b600080600360009054906101000a900473ffffffffffffffffffffffffffffffffffffffff1673ffffffffffffffffffffffffffffffffffffffff166370a08231306040518263ffffffff1660e01b815260040161132691906121ae565b60206040518083038186803b15801561133e57600080fd5b505afa158015611352573d6000803e3d6000fd5b505050506040513d601f19601f8201168201806040525081019061137691906121de565b90508091505090565b600b6020528060005260406000206000915090505481565b6000600754821180156113ab575060065482115b1561140e576001601060008573ffffffffffffffffffffffffffffffffffffffff1673ffffffffffffffffffffffffffffffffffffffff16815260200190815260200160002060006101000a81548160ff02191690831515021790559050611468565b6000601060008573ffffffffffffffffffffffffffffffffffffffff1673ffffffffffffffffffffffffffffffffffffffff16815260200190815260200160002060006101000a81548160ff021916908315150217905590505b92915050565b600c6020528060005260406000206000915090505481565b600160009054906101000a900473ffffffffffffffffffffffffffffffffffffffff1681565b60106020528060005260406000206000915054906101000a900460ff1681565b60116020528060005260406000206000915090505481565b60085481565b600d6020528060005260406000206000915090505481565b600a5481565b60095481565b600f6020528060005260406000206000915090505481565b600e6020528060005260406000206000915090505481565b600260009054906101000a900473ffffffffffffffffffffffffffffffffffffffff1681565b600080600b60008473ffffffffffffffffffffffffffffffffffffffff1673ffffffffffffffffffffffffffffffffffffffff16815260200190815260200160002054905080915050919050565b600080600d60008473ffffffffffffffffffffffffffffffffffffffff1673ffffffffffffffffffffffffffffffffffffffff16815260200190815260200160002054905080915050919050565b60008111611643576040517f08c379a000000000000000000000000000000000000000000000000000000000815260040161163a9061245d565b60405180910390fd5b6000603c600f60003373ffffffffffffffffffffffffffffffffffffffff1673ffffffffffffffffffffffffffffffffffffffff16815260200190815260200160002054426116929190611fde565b61169c9190612041565b9050600062080520600a83600a54670de0b6b3a7640000600d60003373ffffffffffffffffffffffffffffffffffffffff1673ffffffffffffffffffffffffffffffffffffffff168152602001908152602001600020546116fd9190612041565b6117079190612072565b6117119190612072565b61171b9190612072565b6117259190612041565b9050600360009054906101000a900473ffffffffffffffffffffffffffffffffffffffff1673ffffffffffffffffffffffffffffffffffffffff1663a9059cbb600560009054906101000a900473ffffffffffffffffffffffffffffffffffffffff16836040518363ffffffff1660e01b81526004016117a692919061249e565b602060405180830381600087803b1580156117c057600080fd5b505af11580156117d4573d6000803e3d6000fd5b505050506040513d601f19601f820116820180604052508101906117f891906122da565b50600081846118079190611fde565b9050600360009054906101000a900473ffffffffffffffffffffffffffffffffffffffff1673ffffffffffffffffffffffffffffffffffffffff166323b872dd3330846040518463ffffffff1660e01b815260040161186893929190612277565b602060405180830381600087803b15801561188257600080fd5b505af1158015611896573d6000803e3d6000fd5b505050506040513d601f19601f820116820180604052508101906118ba91906122da565b5080600460008282546118cd91906120cc565b925050819055506000600d60003373ffffffffffffffffffffffffffffffffffffffff1673ffffffffffffffffffffffffffffffffffffffff168152602001908152602001600020819055506000600c60003373ffffffffffffffffffffffffffffffffffffffff1673ffffffffffffffffffffffffffffffffffffffff168152602001908152602001600020549050600260009054906101000a900473ffffffffffffffffffffffffffffffffffffffff1673ffffffffffffffffffffffffffffffffffffffff1663a9059cbb33836040518363ffffffff1660e01b81526004016119ba929190612330565b602060405180830381600087803b1580156119d457600080fd5b505af11580156119e8573d6000803e3d6000fd5b505050506040513d601f19601f82011682018060405250810190611a0c91906122da565b506000600c60003373ffffffffffffffffffffffffffffffffffffffff1673ffffffffffffffffffffffffffffffffffffffff168152602001908152602001600020819055503373ffffffffffffffffffffffffffffffffffffffff167f432f2abeedfc213d8be3c057e2598a48526e403d2da2cfedd0ae185930f3c20286604051611a989190611d43565b60405180910390a25050505050565b600080603c600e60003373ffffffffffffffffffffffffffffffffffffffff1673ffffffffffffffffffffffffffffffffffffffff1681526020019081526020016000205442611af79190611fde565b611b019190612041565b9050600062080520600a83600954670de0b6b3a7640000600b60003373ffffffffffffffffffffffffffffffffffffffff1673ffffffffffffffffffffffffffffffffffffffff16815260200190815260200160002054611b629190612041565b611b6c9190612072565b611b769190612072565b611b809190612072565b611b8a9190612041565b9050600081600b60003373ffffffffffffffffffffffffffffffffffffffff1673ffffffffffffffffffffffffffffffffffffffff16815260200190815260200160002054611bd991906120cc565b905080935050505090565b600360009054906101000a900473ffffffffffffffffffffffffffffffffffffffff1681565b600080600260009054906101000a900473ffffffffffffffffffffffffffffffffffffffff1673ffffffffffffffffffffffffffffffffffffffff166370a08231306040518263ffffffff1660e01b8152600401611c6891906121ae565b60206040518083038186803b158015611c8057600080fd5b505afa158015611c94573d6000803e3d6000fd5b505050506040513d601f19601f82011682018060405250810190611cb891906121de565b90508091505090565b600080601160008473ffffffffffffffffffffffffffffffffffffffff1673ffffffffffffffffffffffffffffffffffffffff16815260200190815260200160002054905080915050919050565b600080600283611d1f9190612041565b905080915050919050565b6000819050919050565b611d3d81611d2a565b82525050565b6000602082019050611d586000830184611d34565b92915050565b600080fd5b611d6c81611d2a565b8114611d7757600080fd5b50565b600081359050611d8981611d63565b92915050565b600060208284031215611da557611da4611d5e565b5b6000611db384828501611d7a565b91505092915050565b600073ffffffffffffffffffffffffffffffffffffffff82169050919050565b6000611de782611dbc565b9050919050565b611df781611ddc565b8114611e0257600080fd5b50565b600081359050611e1481611dee565b92915050565b600060208284031215611e3057611e2f611d5e565b5b6000611e3e84828501611e05565b91505092915050565b60008060408385031215611e5e57611e5d611d5e565b5b6000611e6c85828601611e05565b9250506020611e7d85828601611d7a565b9150509250929050565b60008115159050919050565b611e9c81611e87565b82525050565b6000602082019050611eb76000830184611e93565b92915050565b6000819050919050565b6000611ee2611edd611ed884611dbc565b611ebd565b611dbc565b9050919050565b6000611ef482611ec7565b9050919050565b6000611f0682611ee9565b9050919050565b611f1681611efb565b82525050565b6000602082019050611f316000830184611f0d565b92915050565b6000611f4282611ee9565b9050919050565b611f5281611f37565b82525050565b6000602082019050611f6d6000830184611f49565b92915050565b6000611f7e82611ee9565b9050919050565b611f8e81611f73565b82525050565b6000602082019050611fa96000830184611f85565b92915050565b7f4e487b7100000000000000000000000000000000000000000000000000000000600052601160045260246000fd5b6000611fe982611d2a565b9150611ff483611d2a565b92508282101561200757612006611faf565b5b828203905092915050565b7f4e487b7100000000000000000000000000000000000000000000000000000000600052601260045260246000fd5b600061204c82611d2a565b915061205783611d2a565b92508261206757612066612012565b5b828204905092915050565b600061207d82611d2a565b915061208883611d2a565b9250817fffffffffffffffffffffffffffffffffffffffffffffffffffffffffffffffff04831182151516156120c1576120c0611faf565b5b828202905092915050565b60006120d782611d2a565b91506120e283611d2a565b9250827fffffffffffffffffffffffffffffffffffffffffffffffffffffffffffffffff0382111561211757612116611faf565b5b828201905092915050565b600082825260208201905092915050565b7f4e65656420746f20646f204b7963000000000000000000000000000000000000600082015250565b6000612169600e83612122565b915061217482612133565b602082019050919050565b600060208201905081810360008301526121988161215c565b9050919050565b6121a881611ddc565b82525050565b60006020820190506121c3600083018461219f565b92915050565b6000815190506121d881611d63565b92915050565b6000602082840312156121f4576121f3611d5e565b5b6000612202848285016121c9565b91505092915050565b7f596f75206861766520696e73756666696369656e742045494e52000000000000600082015250565b6000612241601a83612122565b915061224c8261220b565b602082019050919050565b6000602082019050818103600083015261227081612234565b9050919050565b600060608201905061228c600083018661219f565b612299602083018561219f565b6122a66040830184611d34565b949350505050565b6122b781611e87565b81146122c257600080fd5b50565b6000815190506122d4816122ae565b92915050565b6000602082840312156122f0576122ef611d5e565b5b60006122fe848285016122c5565b91505092915050565b600060408201905061231c6000830185611d34565b6123296020830184611d34565b9392505050565b6000604082019050612345600083018561219f565b6123526020830184611d34565b9392505050565b7f796f75206861766520696e73756666696369656e742045476f6c6420746f6b6560008201527f6e00000000000000000000000000000000000000000000000000000000000000602082015250565b60006123b5602183612122565b91506123c082612359565b604082019050919050565b600060208201905081810360008301526123e4816123a8565b9050919050565b7f557365722068617320696e73756666696369656e742042616c616e636520746f60008201527f20726570617920746865206c6f616e0000000000000000000000000000000000602082015250565b6000612447602f83612122565b9150612452826123eb565b604082019050919050565b600060208201905081810360008301526124768161243a565b9050919050565b600061248882611ee9565b9050919050565b6124988161247d565b82525050565b60006040820190506124b3600083018561248f565b6124c06020830184611d34565b939250505056fea26469706673582212209e7e5e03e9e70017aeab48d359f59b59793cfcdf5187fe80e6c074883f976cb064736f6c63430008080033",
  "immutableReferences": {},
  "source": "// SPDX-License-Identifier: MIT\n\npragma solidity 0.8.8;\n\nimport \"./LPToken.sol\";\nimport \"./EGoldToken.sol\";\nimport \"./EINRToken.sol\";\n//import \"hardhat/console.sol\";\n\ncontract LendingPool{\n    //address of owner of this contract\n    address payable admin;\n    //instance of Lptoken\n    LPToken public lpToken;\n    //instance of EGoldToken\n    EGoldToken public eGoldToken;\n    //instance of EINRToken\n    EINRToken public eINRToken;\n    //total supply of EINR in lending pool\n    uint256 public totalSupply;\n\n    address payable wallet = payable(0xa81A0B8f163EAe6E4265964BC2b8975c44119b4B);\n\n    uint256 thresholdLimitBorrow = 1500 * 10 ** 18;\n    uint256 thresholdLimitLender = 1000 * 10 ** 18;\n\n    uint public interestRateBorrower = 1000; //10% for borrower\n    uint256 public interestRateLender = 800; //8% for lender \n    uint256 public interestRateContract = 200; //2%  application fee commission\n    \n    //mapping to store the balance of EINR deposited in Lending Pool by particular User.\n    mapping(address => uint256)public balanceOfEINR;\n    //mapping to store the balance of EGold deposited in Lending Pool by particular User.\n    mapping(address => uint256)public balanceOfEGold;\n     //mapping to store the balance of EINR borrowed in Lending Pool by particular User.\n    mapping(address => uint256)public borrowEINRAmount;\n    //mapping to store User Deposited time.\n    mapping(address => uint256)public depositStartTime;\n    //mapping to store User Borrowed time.\n    mapping(address => uint256)public borrowedTime;\n    //mapping to check the user has done KYC or not\n    mapping(address =>bool) public usersKYCchecks;\n    // mapping to store UserRepayment amount for repaying\n    mapping(address =>uint256) public userRepayAmount;\n    \n    /** EVENTS */\n    event Deposited(address indexed account, uint256 eINRamount, uint256 startDepositTime);\n    event Withdrawed(address indexed account, uint256 amount);\n    event Borrowedloan(address indexed account,uint256 amount, uint256 startBorrowTime);\n    event Repayedloan(address indexed account, uint256 amount);\n\n    constructor(address _eINRToken, address _eGoldToken, address _lpToken) {\n        admin = payable(msg.sender);\n        eINRToken = EINRToken(_eINRToken);\n        eGoldToken = EGoldToken(_eGoldToken);\n        lpToken = LPToken(_lpToken);       \n    }\n    \n    /** @dev In this function the admin can check whether the User has done KYC or not.\n    * @param account pass the user account address.\n    * @param _amount pass the amount of EINR token to be borrowed or deposited.\n    * @return bool whether the KYC is true or false for the particular User account.\n    */\n    function checkKYCForUsers(address account,uint256 _amount)public returns(bool)\n    {\n        if(_amount >thresholdLimitLender && _amount > thresholdLimitBorrow){\n            return usersKYCchecks[account]= true;\n        }else{\n           return usersKYCchecks[account]= false;\n        }\n    }\n\n   /** @dev In this function the User can deposit their EINR asset in Lending Pool.\n    * @param _EINRamount pass the amount of EINR token to deposit in Lending Pool.\n    */\n    function depositeINRToken(uint256 _EINRamount) external{\n        // require(_time == oneMonth ||_time == threeMonths ||_time == sixMonths ||_time == oneYear,\n        //     \"Deposit Time should be in time limits defined\"\n        // );\n        require(checkKYCForUsers(msg.sender, _EINRamount), \"Need to do Kyc\");\n        require(_EINRamount > 0 && eINRToken.balanceOf(msg.sender) >= _EINRamount,\"You have insufficient EINR\");\n        balanceOfEINR[msg.sender] += _EINRamount;\n        eINRToken.transferFrom(msg.sender, address(this), _EINRamount);\n        depositStartTime[msg.sender] = block.timestamp; \n        //durationForLender[msg.sender]= _time;\n        totalSupply += _EINRamount;\n        emit Deposited(msg.sender, _EINRamount, block.timestamp);\n        //get lP token as a proof of receipt \n        lpToken.mint(msg.sender, _EINRamount);\n    }\n\n    /** @dev This function calculate the interest earn by the depositor.\n    * @return withdrawAmount is the amount with interest earn by depositor.\n    */\n    function getAmountWithInterest() public view returns(uint256){\n       uint256 periodLock = (block.timestamp - depositStartTime[msg.sender])/ 60;\n       //uint256 periodLock = durationForLender[msg.sender];\n       //console.log(periodLock, \"Get the deposit lock time here\");\n       uint256 interestGain = (((balanceOfEINR[msg.sender]/1e18) * interestRateLender * periodLock ) * 10 / (365 * 24 * 60));\n       //console.log(interestGain, \"Interest Gain Per min\");\n       uint256 withdrawAmount = balanceOfEINR[msg.sender] + interestGain;\n       //console.log(withdrawAmount, \"Amount calculated for Investor with Interest\");\n       return (withdrawAmount);\n    }\n\n\n    /** @dev In this function the User can withdraw their EINR asset in Lending Pool.\n    * @param amountToWithdraw pass the amount of EINR token to deposit in Lending Pool.\n    */\n    function withDrawEINRToken(uint256 amountToWithdraw) external{\n        eINRToken.transfer(msg.sender, amountToWithdraw);\n        totalSupply -= amountToWithdraw;\n        emit Withdrawed(msg.sender, amountToWithdraw);\n        //lp token burnt after withdraw\n        lpToken.burn(msg.sender,  balanceOfEINR[msg.sender]);\n        balanceOfEINR[msg.sender] = balanceOfEINR[msg.sender] - amountToWithdraw ;    \n    }\n\n    /** @dev In this function user get the calculated value of EINR token he can borrow.\n    * @param _collateralAmount pass the amount of EGold token as a collateral to be deposited in Lending Pool.\n    * @return borrowEinrAmt calculated loan amount based on the collateral deposited.\n    */\n    function calculatedEINRloan(uint256 _collateralAmount)public view returns(uint256){\n        uint256 borrowEinrAmt = _collateralAmount/2 ;\n        return(borrowEinrAmt);\n    }\n\n    /** @dev In this function the User can borrow  EINR token by depositing Egold token in Lending Pool.\n    * @param _collateralAmount pass the amount of EGold token to  deposit in Lending Pool.\n    */\n    function borrowEINRLoan(uint256 _collateralAmount) external{\n        require(eGoldToken.balanceOf(msg.sender) >= _collateralAmount, \"you have insufficient EGold token\");   \n        balanceOfEGold[msg.sender] += _collateralAmount;// track the amount given as collateral\n        eGoldToken.transferFrom(msg.sender, address(this), _collateralAmount); //2000 Egold token \n        uint256 EINRamount = _collateralAmount / 2; //loan borrowed is half the price of collateral\n        checkKYCForUsers(msg.sender, EINRamount);\n        totalSupply -= EINRamount;\n        eINRToken.transfer(msg.sender, EINRamount);  \n        borrowedTime[msg.sender] = block.timestamp;\n        //durationForBorrower[msg.sender] = _time;\n        borrowEINRAmount[msg.sender] += EINRamount;\n        // event emitted    \n        emit Borrowedloan(msg.sender, EINRamount, block.timestamp);\n    }\n    \n    /** @dev This function calculate the interest to be repaid by the borrower.\n    * @return repayAmount is the amount with interest to repay by the borrower.\n    */\n    function getborrowerRepayAmount()public  returns(uint256){\n        uint256 dueTime = (block.timestamp - borrowedTime[msg.sender])/60; \n        //uint256 dueTime = durationForBorrower[msg.sender]; \n        //console.log(dueTime, \"Get the loan time here\");\n        uint256 interestToRepay = (((borrowEINRAmount[msg.sender]/1e18)* interestRateBorrower * dueTime)* 10 /(365 * 24 * 60));// interest for lender\n        uint256 repayAmount = borrowEINRAmount[msg.sender] + interestToRepay;//interest added\n        //console.log(repayAmount, \"Amount to be paid by with Interest to the contract\");\n        userRepayAmount[msg.sender] += repayAmount;\n        return (repayAmount);\n    }\n\n    /** @dev In this function the User can repay their EINR asset in Lending Pool.\n    * @param finalRepayAmount repay the amount of EINR token with Interest in Lending Pool.\n    */\n    function repayEINRLoan(uint256 finalRepayAmount)external {\n        require(finalRepayAmount > 0 , \"User has insufficient Balance to repay the loan\");\n        uint256 duration = (block.timestamp - borrowedTime[msg.sender])/60; \n        uint256 interestContract =(((borrowEINRAmount[msg.sender]/1e18)* interestRateContract * duration)* 10 /(365 * 24 * 60));\n        eINRToken.transfer(wallet, interestContract);\n        uint256 payback = finalRepayAmount - interestContract;\n        //console.log(payback);\n        eINRToken.transferFrom(msg.sender ,address(this), payback);\n        totalSupply += payback;\n        borrowEINRAmount[msg.sender]= 0;//deduct the borrow amount from mapping borrow user mapping\n        uint256 repayCollateral = balanceOfEGold[msg.sender];\n        eGoldToken.transfer(msg.sender, repayCollateral);\n        balanceOfEGold[msg.sender]= 0;\n        //event emitted\n        emit Repayedloan(msg.sender, finalRepayAmount);\n    }\n\n    /** @dev In this function get the Total Supply of EINR in Lending Pool.\n    * @return totalSupply gives total amount of EINR stored in Lending .\n    */\n    function getTotalOfSupplyEINRPool() public view returns(uint256){\n        return (totalSupply);\n    }\n\n    /** @dev In this function get the Total Supply of EINR locked in Lending Pool.\n    * @return einramount gives total amount of EINR stored in Lending .\n    */\n    function getTotalOfBalanceEINR() public view returns(uint256) {\n        uint256 einramount = eINRToken.balanceOf(address(this));\n        return (einramount);\n    }\n\n    /** @dev In this function get the Total Supply in Lending Pool.\n    * @return egoldamount gives total amount of EINR stored in Lending\n    */\n    function getTotalBalanceEGold() public view returns(uint256){\n        uint256 egoldamount = eGoldToken.balanceOf(address(this));\n        return (egoldamount);\n    }\n\n    /** @dev In this function get User balance of EINR token Deposited in Lending Pool.\n    * @param account pass the User  account address.\n    * @return baleinr gives User balance of EINR token stored in Lending pool.\n    */\n    function getOwnerDepositEINRBalance(address account) public view returns(uint256) {\n        uint256 baleinr = balanceOfEINR[account];\n        return (baleinr);\n    }\n    \n    /** @dev In this function get User balance of EGold token Deposited in Lending Pool.\n    * @param account pass the User  account address.\n    * @return balegold gives User balance of EGold token stored in Lending pool.\n    */\n    function getOwnerEGoldBalance(address account) public view returns(uint256){\n        uint256 balegold = balanceOfEGold[account];\n        return (balegold);\n    }\n\n    /** @dev In this function get User balance of EINR token Borrowed from Lending Pool.\n    * @param account pass the User  account address.\n    * @return baleinborrow gives User balance of EINR token borrowed from Lending pool.\n    */\n    function getBorrowEINRAmount(address account) public view returns(uint256){\n        uint256 baleinborrow = borrowEINRAmount[account];\n        return (baleinborrow);\n    }\n\n    /** @dev In this function get User balance of LP token minted.\n    * @param account pass the User  account address.\n    * @return lptokenbal gives User balance of LP token minted in Lending pool.\n    */\n    function getBalanceOfLPtoken(address account) public view returns(uint256){\n        uint256 lptokenbal =  lpToken.balanceOf(account);\n        return lptokenbal;\n    }\n    \n    /** @dev In this function get User balance of EINR token to be repaid in Lending Pool.\n    * @param account pass the User  account address.\n    * @return repaybal gives User repay amount of EINR token with interest borrowed.\n    */\n    function getUserRepayAmount(address account) public view returns(uint256){\n        uint256 repaybal = userRepayAmount[account];\n        return repaybal;\n    }\n}\n",
  "sourcePath": "/home/neosoft/project/Defi_lending_POC/Solidity_contracts/contracts/LendingPool.sol",
  "compiler": {
    "name": "solc",
    "version": "0.8.8+commit.dddeac2f.Emscripten.clang"
  },
  "schemaVersion": "3.4.13",
  "updatedAt": "2023-03-20T12:45:58.225Z",
  "networkType": "ethereum",
  "devdoc": {
    "kind": "dev",
    "methods": {
      "borrowEINRLoan(uint256)": {
        "details": "In this function the User can borrow  EINR token by depositing Egold token in Lending Pool.",
        "params": {
          "_collateralAmount": "pass the amount of EGold token to  deposit in Lending Pool."
        }
      },
      "calculatedEINRloan(uint256)": {
        "details": "In this function user get the calculated value of EINR token he can borrow.",
        "params": {
          "_collateralAmount": "pass the amount of EGold token as a collateral to be deposited in Lending Pool."
        },
        "returns": {
          "_0": "borrowEinrAmt calculated loan amount based on the collateral deposited."
        }
      },
      "checkKYCForUsers(address,uint256)": {
        "details": "In this function the admin can check whether the User has done KYC or not.",
        "params": {
          "_amount": "pass the amount of EINR token to be borrowed or deposited.",
          "account": "pass the user account address."
        },
        "returns": {
          "_0": "bool whether the KYC is true or false for the particular User account."
        }
      },
      "depositeINRToken(uint256)": {
        "details": "In this function the User can deposit their EINR asset in Lending Pool.",
        "params": {
          "_EINRamount": "pass the amount of EINR token to deposit in Lending Pool."
        }
      },
      "getAmountWithInterest()": {
        "details": "This function calculate the interest earn by the depositor.",
        "returns": {
          "_0": "withdrawAmount is the amount with interest earn by depositor."
        }
      },
      "getBalanceOfLPtoken(address)": {
        "details": "In this function get User balance of LP token minted.",
        "params": {
          "account": "pass the User  account address."
        },
        "returns": {
          "_0": "lptokenbal gives User balance of LP token minted in Lending pool."
        }
      },
      "getBorrowEINRAmount(address)": {
        "details": "In this function get User balance of EINR token Borrowed from Lending Pool.",
        "params": {
          "account": "pass the User  account address."
        },
        "returns": {
          "_0": "baleinborrow gives User balance of EINR token borrowed from Lending pool."
        }
      },
      "getOwnerDepositEINRBalance(address)": {
        "details": "In this function get User balance of EINR token Deposited in Lending Pool.",
        "params": {
          "account": "pass the User  account address."
        },
        "returns": {
          "_0": "baleinr gives User balance of EINR token stored in Lending pool."
        }
      },
      "getOwnerEGoldBalance(address)": {
        "details": "In this function get User balance of EGold token Deposited in Lending Pool.",
        "params": {
          "account": "pass the User  account address."
        },
        "returns": {
          "_0": "balegold gives User balance of EGold token stored in Lending pool."
        }
      },
      "getTotalBalanceEGold()": {
        "details": "In this function get the Total Supply in Lending Pool.",
        "returns": {
          "_0": "egoldamount gives total amount of EINR stored in Lending"
        }
      },
      "getTotalOfBalanceEINR()": {
        "details": "In this function get the Total Supply of EINR locked in Lending Pool.",
        "returns": {
          "_0": "einramount gives total amount of EINR stored in Lending ."
        }
      },
      "getTotalOfSupplyEINRPool()": {
        "details": "In this function get the Total Supply of EINR in Lending Pool.",
        "returns": {
          "_0": "totalSupply gives total amount of EINR stored in Lending ."
        }
      },
      "getUserRepayAmount(address)": {
        "details": "In this function get User balance of EINR token to be repaid in Lending Pool.",
        "params": {
          "account": "pass the User  account address."
        },
        "returns": {
          "_0": "repaybal gives User repay amount of EINR token with interest borrowed."
        }
      },
      "getborrowerRepayAmount()": {
        "details": "This function calculate the interest to be repaid by the borrower.",
        "returns": {
          "_0": "repayAmount is the amount with interest to repay by the borrower."
        }
      },
      "repayEINRLoan(uint256)": {
        "details": "In this function the User can repay their EINR asset in Lending Pool.",
        "params": {
          "finalRepayAmount": "repay the amount of EINR token with Interest in Lending Pool."
        }
      },
      "withDrawEINRToken(uint256)": {
        "details": "In this function the User can withdraw their EINR asset in Lending Pool.",
        "params": {
          "amountToWithdraw": "pass the amount of EINR token to deposit in Lending Pool."
        }
      }
    },
    "version": 1
  },
  "userdoc": {
    "events": {
      "Deposited(address,uint256,uint256)": {
        "notice": "EVENTS "
      }
    },
    "kind": "user",
    "methods": {},
    "version": 1
  }
}