{
  "contractName": "LendingPool",
  "abi": [
    {
      "inputs": [
        {
          "internalType": "address",
          "name": "_eINRToken",
          "type": "address"
        },
        {
          "internalType": "address",
          "name": "_eGoldToken",
          "type": "address"
        },
        {
          "internalType": "address",
          "name": "_lpToken",
          "type": "address"
        }
      ],
      "stateMutability": "nonpayable",
      "type": "constructor"
    },
    {
      "anonymous": false,
      "inputs": [
        {
          "indexed": true,
          "internalType": "address",
          "name": "account",
          "type": "address"
        },
        {
          "indexed": false,
          "internalType": "uint256",
          "name": "amount",
          "type": "uint256"
        },
        {
          "indexed": false,
          "internalType": "uint256",
          "name": "startBorrowTime",
          "type": "uint256"
        }
      ],
      "name": "Borrowedloan",
      "type": "event"
    },
    {
      "anonymous": false,
      "inputs": [
        {
          "indexed": true,
          "internalType": "address",
          "name": "account",
          "type": "address"
        },
        {
          "indexed": false,
          "internalType": "uint256",
          "name": "eINRamount",
          "type": "uint256"
        },
        {
          "indexed": false,
          "internalType": "uint256",
          "name": "startDepositTime",
          "type": "uint256"
        }
      ],
      "name": "Deposited",
      "type": "event"
    },
    {
      "anonymous": false,
      "inputs": [
        {
          "indexed": true,
          "internalType": "address",
          "name": "account",
          "type": "address"
        },
        {
          "indexed": false,
          "internalType": "uint256",
          "name": "amount",
          "type": "uint256"
        }
      ],
      "name": "Repayedloan",
      "type": "event"
    },
    {
      "anonymous": false,
      "inputs": [
        {
          "indexed": true,
          "internalType": "address",
          "name": "account",
          "type": "address"
        },
        {
          "indexed": false,
          "internalType": "uint256",
          "name": "amount",
          "type": "uint256"
        }
      ],
      "name": "Withdrawed",
      "type": "event"
    },
    {
      "inputs": [
        {
          "internalType": "address",
          "name": "",
          "type": "address"
        }
      ],
      "name": "balanceOfEGold",
      "outputs": [
        {
          "internalType": "uint256",
          "name": "",
          "type": "uint256"
        }
      ],
      "stateMutability": "view",
      "type": "function",
      "constant": true
    },
    {
      "inputs": [
        {
          "internalType": "address",
          "name": "",
          "type": "address"
        }
      ],
      "name": "balanceOfEINR",
      "outputs": [
        {
          "internalType": "uint256",
          "name": "",
          "type": "uint256"
        }
      ],
      "stateMutability": "view",
      "type": "function",
      "constant": true
    },
    {
      "inputs": [
        {
          "internalType": "address",
          "name": "",
          "type": "address"
        }
      ],
      "name": "borrowEINRAmount",
      "outputs": [
        {
          "internalType": "uint256",
          "name": "",
          "type": "uint256"
        }
      ],
      "stateMutability": "view",
      "type": "function",
      "constant": true
    },
    {
      "inputs": [
        {
          "internalType": "address",
          "name": "",
          "type": "address"
        }
      ],
      "name": "borrowedTime",
      "outputs": [
        {
          "internalType": "uint256",
          "name": "",
          "type": "uint256"
        }
      ],
      "stateMutability": "view",
      "type": "function",
      "constant": true
    },
    {
      "inputs": [
        {
          "internalType": "address",
          "name": "",
          "type": "address"
        }
      ],
      "name": "contractInterest",
      "outputs": [
        {
          "internalType": "uint256",
          "name": "",
          "type": "uint256"
        }
      ],
      "stateMutability": "view",
      "type": "function",
      "constant": true
    },
    {
      "inputs": [
        {
          "internalType": "address",
          "name": "",
          "type": "address"
        }
      ],
      "name": "depositStartTime",
      "outputs": [
        {
          "internalType": "uint256",
          "name": "",
          "type": "uint256"
        }
      ],
      "stateMutability": "view",
      "type": "function",
      "constant": true
    },
    {
      "inputs": [],
      "name": "eGoldToken",
      "outputs": [
        {
          "internalType": "contract EGoldToken",
          "name": "",
          "type": "address"
        }
      ],
      "stateMutability": "view",
      "type": "function",
      "constant": true
    },
    {
      "inputs": [],
      "name": "eINRToken",
      "outputs": [
        {
          "internalType": "contract EINRToken",
          "name": "",
          "type": "address"
        }
      ],
      "stateMutability": "view",
      "type": "function",
      "constant": true
    },
    {
      "inputs": [],
      "name": "interestRateBorrower",
      "outputs": [
        {
          "internalType": "uint256",
          "name": "",
          "type": "uint256"
        }
      ],
      "stateMutability": "view",
      "type": "function",
      "constant": true
    },
    {
      "inputs": [],
      "name": "interestRateContract",
      "outputs": [
        {
          "internalType": "uint256",
          "name": "",
          "type": "uint256"
        }
      ],
      "stateMutability": "view",
      "type": "function",
      "constant": true
    },
    {
      "inputs": [],
      "name": "interestRateLender",
      "outputs": [
        {
          "internalType": "uint256",
          "name": "",
          "type": "uint256"
        }
      ],
      "stateMutability": "view",
      "type": "function",
      "constant": true
    },
    {
      "inputs": [],
      "name": "lpToken",
      "outputs": [
        {
          "internalType": "contract LPToken",
          "name": "",
          "type": "address"
        }
      ],
      "stateMutability": "view",
      "type": "function",
      "constant": true
    },
    {
      "inputs": [],
      "name": "totalSupply",
      "outputs": [
        {
          "internalType": "uint256",
          "name": "",
          "type": "uint256"
        }
      ],
      "stateMutability": "view",
      "type": "function",
      "constant": true
    },
    {
      "inputs": [
        {
          "internalType": "address",
          "name": "",
          "type": "address"
        }
      ],
      "name": "userRepayAmount",
      "outputs": [
        {
          "internalType": "uint256",
          "name": "",
          "type": "uint256"
        }
      ],
      "stateMutability": "view",
      "type": "function",
      "constant": true
    },
    {
      "inputs": [
        {
          "internalType": "address",
          "name": "",
          "type": "address"
        }
      ],
      "name": "usersKYCchecks",
      "outputs": [
        {
          "internalType": "bool",
          "name": "",
          "type": "bool"
        }
      ],
      "stateMutability": "view",
      "type": "function",
      "constant": true
    },
    {
      "inputs": [
        {
          "internalType": "address",
          "name": "account",
          "type": "address"
        },
        {
          "internalType": "uint256",
          "name": "_amount",
          "type": "uint256"
        }
      ],
      "name": "checkKYCForUsers",
      "outputs": [],
      "stateMutability": "nonpayable",
      "type": "function"
    },
    {
      "inputs": [
        {
          "internalType": "uint256",
          "name": "_EINRamount",
          "type": "uint256"
        }
      ],
      "name": "depositeINRToken",
      "outputs": [],
      "stateMutability": "nonpayable",
      "type": "function"
    },
    {
      "inputs": [],
      "name": "getAmountWithInterest",
      "outputs": [
        {
          "internalType": "uint256",
          "name": "",
          "type": "uint256"
        }
      ],
      "stateMutability": "view",
      "type": "function",
      "constant": true
    },
    {
      "inputs": [
        {
          "internalType": "uint256",
          "name": "amountToWithdraw",
          "type": "uint256"
        }
      ],
      "name": "withDrawEINRToken",
      "outputs": [],
      "stateMutability": "nonpayable",
      "type": "function"
    },
    {
      "inputs": [
        {
          "internalType": "uint256",
          "name": "_collateralAmount",
          "type": "uint256"
        }
      ],
      "name": "calculatedEINRloan",
      "outputs": [
        {
          "internalType": "uint256",
          "name": "",
          "type": "uint256"
        }
      ],
      "stateMutability": "view",
      "type": "function",
      "constant": true
    },
    {
      "inputs": [
        {
          "internalType": "uint256",
          "name": "_collateralAmount",
          "type": "uint256"
        }
      ],
      "name": "borrowEINRLoan",
      "outputs": [],
      "stateMutability": "nonpayable",
      "type": "function"
    },
    {
      "inputs": [],
      "name": "getborrowerRepayAmount",
      "outputs": [
        {
          "internalType": "uint256",
          "name": "",
          "type": "uint256"
        }
      ],
      "stateMutability": "nonpayable",
      "type": "function"
    },
    {
      "inputs": [],
      "name": "calculateContractComission",
      "outputs": [
        {
          "internalType": "uint256",
          "name": "",
          "type": "uint256"
        },
        {
          "internalType": "uint256",
          "name": "",
          "type": "uint256"
        }
      ],
      "stateMutability": "nonpayable",
      "type": "function"
    },
    {
      "inputs": [
        {
          "internalType": "uint256",
          "name": "interestContract",
          "type": "uint256"
        }
      ],
      "name": "withDrawCommision",
      "outputs": [],
      "stateMutability": "nonpayable",
      "type": "function"
    },
    {
      "inputs": [
        {
          "internalType": "uint256",
          "name": "finalRepayAmount",
          "type": "uint256"
        }
      ],
      "name": "repayEINRLoan",
      "outputs": [],
      "stateMutability": "nonpayable",
      "type": "function"
    },
    {
      "inputs": [],
      "name": "getTotalOfSupplyEINRPool",
      "outputs": [
        {
          "internalType": "uint256",
          "name": "",
          "type": "uint256"
        }
      ],
      "stateMutability": "view",
      "type": "function",
      "constant": true
    },
    {
      "inputs": [],
      "name": "getTotalOfBalanceEINR",
      "outputs": [
        {
          "internalType": "uint256",
          "name": "",
          "type": "uint256"
        }
      ],
      "stateMutability": "view",
      "type": "function",
      "constant": true
    },
    {
      "inputs": [],
      "name": "getTotalBalanceEGold",
      "outputs": [
        {
          "internalType": "uint256",
          "name": "",
          "type": "uint256"
        }
      ],
      "stateMutability": "view",
      "type": "function",
      "constant": true
    },
    {
      "inputs": [
        {
          "internalType": "address",
          "name": "account",
          "type": "address"
        }
      ],
      "name": "getOwnerDepositEINRBalance",
      "outputs": [
        {
          "internalType": "uint256",
          "name": "",
          "type": "uint256"
        }
      ],
      "stateMutability": "view",
      "type": "function",
      "constant": true
    },
    {
      "inputs": [
        {
          "internalType": "address",
          "name": "account",
          "type": "address"
        }
      ],
      "name": "getOwnerEGoldBalance",
      "outputs": [
        {
          "internalType": "uint256",
          "name": "",
          "type": "uint256"
        }
      ],
      "stateMutability": "view",
      "type": "function",
      "constant": true
    },
    {
      "inputs": [
        {
          "internalType": "address",
          "name": "account",
          "type": "address"
        }
      ],
      "name": "getBorrowEINRAmount",
      "outputs": [
        {
          "internalType": "uint256",
          "name": "",
          "type": "uint256"
        }
      ],
      "stateMutability": "view",
      "type": "function",
      "constant": true
    },
    {
      "inputs": [
        {
          "internalType": "address",
          "name": "account",
          "type": "address"
        }
      ],
      "name": "getBalanceOfLPtoken",
      "outputs": [
        {
          "internalType": "uint256",
          "name": "",
          "type": "uint256"
        }
      ],
      "stateMutability": "view",
      "type": "function",
      "constant": true
    },
    {
      "inputs": [
        {
          "internalType": "address",
          "name": "account",
          "type": "address"
        }
      ],
      "name": "getUserRepayAmount",
      "outputs": [
        {
          "internalType": "uint256",
          "name": "",
          "type": "uint256"
        }
      ],
      "stateMutability": "view",
      "type": "function",
      "constant": true
    },
    {
      "inputs": [
        {
          "internalType": "address",
          "name": "account",
          "type": "address"
        }
      ],
      "name": "getContractInterest",
      "outputs": [
        {
          "internalType": "uint256",
          "name": "",
          "type": "uint256"
        }
      ],
      "stateMutability": "view",
      "type": "function",
      "constant": true
    }
  ],
  "bytecode": "0x608060405273a81a0b8f163eae6e4265964bc2b8975c44119b4b600560006101000a81548173ffffffffffffffffffffffffffffffffffffffff021916908373ffffffffffffffffffffffffffffffffffffffff160217905550685150ae84a8cdf00000600655683635c9adc5dea000006007556103e860085561032060095560c8600a553480156200009157600080fd5b50604051620027ca380380620027ca8339818101604052810190620000b791906200022d565b336000806101000a81548173ffffffffffffffffffffffffffffffffffffffff021916908373ffffffffffffffffffffffffffffffffffffffff16021790555082600360006101000a81548173ffffffffffffffffffffffffffffffffffffffff021916908373ffffffffffffffffffffffffffffffffffffffff16021790555081600260006101000a81548173ffffffffffffffffffffffffffffffffffffffff021916908373ffffffffffffffffffffffffffffffffffffffff16021790555080600160006101000a81548173ffffffffffffffffffffffffffffffffffffffff021916908373ffffffffffffffffffffffffffffffffffffffff16021790555050505062000289565b600080fd5b600073ffffffffffffffffffffffffffffffffffffffff82169050919050565b6000620001f582620001c8565b9050919050565b6200020781620001e8565b81146200021357600080fd5b50565b6000815190506200022781620001fc565b92915050565b600080600060608486031215620002495762000248620001c3565b5b6000620002598682870162000216565b93505060206200026c8682870162000216565b92505060406200027f8682870162000216565b9150509250925092565b61253180620002996000396000f3fe608060405234801561001057600080fd5b50600436106102065760003560e01c806371f07e5c1161011a578063ac22a7e3116100ad578063ebc2c7821161007c578063ebc2c78214610640578063ef36561014610670578063f0be087b1461068e578063f30c750c146106be578063f3ba6c73146106da57610206565b8063ac22a7e3146105b8578063b1653461146105e8578063cf32f42f14610604578063dcd63b921461062257610206565b80638a76a112116100e95780638a76a1121461050a5780639d06d4131461053a578063a1c6502e1461056a578063a657f2fd1461058857610206565b806371f07e5c146104805780637d53dec11461049e57806382ddc100146104ce578063850bab7e146104ec57610206565b8063433c71511161019d578063555b7b851161016c578063555b7b85146103b657806356c76f39146103d25780635fcbd28514610402578063641be7f2146104205780636a4555aa1461045057610206565b8063433c71511461032e5780634d68086b1461034c5780634f058743146103685780635534ef011461038657610206565b80631d8c1180116101d95780631d8c1180146102825780631f928133146102b25780632f7ca059146102ce5780633a0dd0b9146102fe57610206565b80630462c8061461020b57806305187e831461022a5780631548ceca1461024857806318160ddd14610264575b600080fd5b61021361070a565b604051610221929190611def565b60405180910390f35b6102326108a3565b60405161023f9190611e18565b60405180910390f35b610262600480360381019061025d9190611e64565b610a36565b005b61026c610d82565b6040516102799190611e18565b60405180910390f35b61029c60048036038101906102979190611eef565b610d88565b6040516102a99190611e18565b60405180910390f35b6102cc60048036038101906102c79190611e64565b610e3c565b005b6102e860048036038101906102e39190611eef565b61102c565b6040516102f59190611e18565b60405180910390f35b61031860048036038101906103139190611eef565b611075565b6040516103259190611e18565b60405180910390f35b6103366110be565b6040516103439190611e18565b60405180910390f35b61036660048036038101906103619190611e64565b6110c8565b005b61037061148f565b60405161037d9190611e18565b60405180910390f35b6103a0600480360381019061039b9190611eef565b611541565b6040516103ad9190611e18565b60405180910390f35b6103d060048036038101906103cb9190611f1c565b611559565b005b6103ec60048036038101906103e79190611eef565b61162a565b6040516103f99190611e18565b60405180910390f35b61040a611642565b6040516104179190611fbb565b60405180910390f35b61043a60048036038101906104359190611eef565b611668565b6040516104479190611ff1565b60405180910390f35b61046a60048036038101906104659190611eef565b611688565b6040516104779190611e18565b60405180910390f35b6104886116a0565b6040516104959190611e18565b60405180910390f35b6104b860048036038101906104b39190611eef565b6116a6565b6040516104c59190611e18565b60405180910390f35b6104d66116be565b6040516104e39190611e18565b60405180910390f35b6104f46116c4565b6040516105019190611e18565b60405180910390f35b610524600480360381019061051f9190611eef565b6116ca565b6040516105319190611e18565b60405180910390f35b610554600480360381019061054f9190611eef565b6116e2565b6040516105619190611e18565b60405180910390f35b6105726116fa565b60405161057f919061202d565b60405180910390f35b6105a2600480360381019061059d9190611eef565b611720565b6040516105af9190611e18565b60405180910390f35b6105d260048036038101906105cd9190611eef565b611769565b6040516105df9190611e18565b60405180910390f35b61060260048036038101906105fd9190611e64565b6117b2565b005b61060c611a4d565b6040516106199190611e18565b60405180910390f35b61062a611b8a565b6040516106379190612069565b60405180910390f35b61065a60048036038101906106559190611eef565b611bb0565b6040516106679190611e18565b60405180910390f35b610678611bc8565b6040516106859190611e18565b60405180910390f35b6106a860048036038101906106a39190611eef565b611c7a565b6040516106b59190611e18565b60405180910390f35b6106d860048036038101906106d39190611e64565b611cc3565b005b6106f460048036038101906106ef9190611e64565b611dbb565b6040516107019190611e18565b60405180910390f35b6000806000603c601160003373ffffffffffffffffffffffffffffffffffffffff1673ffffffffffffffffffffffffffffffffffffffff168152602001908152602001600020544261075c91906120b3565b6107669190612116565b9050600062080520600a83600a54670de0b6b3a7640000600d60003373ffffffffffffffffffffffffffffffffffffffff1673ffffffffffffffffffffffffffffffffffffffff168152602001908152602001600020546107c79190612116565b6107d19190612147565b6107db9190612147565b6107e59190612147565b6107ef9190612116565b905080600f60003373ffffffffffffffffffffffffffffffffffffffff1673ffffffffffffffffffffffffffffffffffffffff168152602001908152602001600020600082825461084091906121a1565b92505081905550600081600e60003373ffffffffffffffffffffffffffffffffffffffff1673ffffffffffffffffffffffffffffffffffffffff1681526020019081526020016000205461089491906120b3565b90508082945094505050509091565b600080603c601160003373ffffffffffffffffffffffffffffffffffffffff1673ffffffffffffffffffffffffffffffffffffffff16815260200190815260200160002054426108f391906120b3565b6108fd9190612116565b9050600062080520600a83600854670de0b6b3a7640000600d60003373ffffffffffffffffffffffffffffffffffffffff1673ffffffffffffffffffffffffffffffffffffffff1681526020019081526020016000205461095e9190612116565b6109689190612147565b6109729190612147565b61097c9190612147565b6109869190612116565b9050600081600d60003373ffffffffffffffffffffffffffffffffffffffff1673ffffffffffffffffffffffffffffffffffffffff168152602001908152602001600020546109d591906121a1565b905080600e60003373ffffffffffffffffffffffffffffffffffffffff1673ffffffffffffffffffffffffffffffffffffffff1681526020019081526020016000206000828254610a2691906121a1565b9250508190555080935050505090565b610a403382611559565b600081118015610afa575080600360009054906101000a900473ffffffffffffffffffffffffffffffffffffffff1673ffffffffffffffffffffffffffffffffffffffff166370a08231336040518263ffffffff1660e01b8152600401610aa79190612206565b60206040518083038186803b158015610abf57600080fd5b505afa158015610ad3573d6000803e3d6000fd5b505050506040513d601f19601f82011682018060405250810190610af79190612236565b10155b610b39576040517f08c379a0000000000000000000000000000000000000000000000000000000008152600401610b30906122c0565b60405180910390fd5b80600b60003373ffffffffffffffffffffffffffffffffffffffff1673ffffffffffffffffffffffffffffffffffffffff1681526020019081526020016000206000828254610b8891906121a1565b92505081905550600360009054906101000a900473ffffffffffffffffffffffffffffffffffffffff1673ffffffffffffffffffffffffffffffffffffffff166323b872dd3330846040518463ffffffff1660e01b8152600401610bee939291906122e0565b602060405180830381600087803b158015610c0857600080fd5b505af1158015610c1c573d6000803e3d6000fd5b505050506040513d601f19601f82011682018060405250810190610c409190612343565b5042601060003373ffffffffffffffffffffffffffffffffffffffff1673ffffffffffffffffffffffffffffffffffffffff168152602001908152602001600020819055508060046000828254610c9791906121a1565b925050819055503373ffffffffffffffffffffffffffffffffffffffff167f73a19dd210f1a7f902193214c0ee91dd35ee5b4d920cba8d519eca65a7b488ca8242604051610ce6929190611def565b60405180910390a2600160009054906101000a900473ffffffffffffffffffffffffffffffffffffffff1673ffffffffffffffffffffffffffffffffffffffff166340c10f19336103e86040518363ffffffff1660e01b8152600401610d4d9291906123ab565b600060405180830381600087803b158015610d6757600080fd5b505af1158015610d7b573d6000803e3d6000fd5b5050505050565b60045481565b6000600160009054906101000a900473ffffffffffffffffffffffffffffffffffffffff1673ffffffffffffffffffffffffffffffffffffffff166370a08231836040518263ffffffff1660e01b8152600401610de59190612206565b60206040518083038186803b158015610dfd57600080fd5b505afa158015610e11573d6000803e3d6000fd5b505050506040513d601f19601f82011682018060405250810190610e359190612236565b9050919050565b6000600b60003373ffffffffffffffffffffffffffffffffffffffff1673ffffffffffffffffffffffffffffffffffffffff168152602001908152602001600020819055508060046000828254610e9391906120b3565b92505081905550600360009054906101000a900473ffffffffffffffffffffffffffffffffffffffff1673ffffffffffffffffffffffffffffffffffffffff1663a9059cbb33836040518363ffffffff1660e01b8152600401610ef79291906123d4565b602060405180830381600087803b158015610f1157600080fd5b505af1158015610f25573d6000803e3d6000fd5b505050506040513d601f19601f82011682018060405250810190610f499190612343565b503373ffffffffffffffffffffffffffffffffffffffff167f6cca423c6ffc06e62a0acc433965e074b11c28479b0449250ce3ff65ac9e39fe82604051610f909190611e18565b60405180910390a2600160009054906101000a900473ffffffffffffffffffffffffffffffffffffffff1673ffffffffffffffffffffffffffffffffffffffff16639dc29fac336103e86040518363ffffffff1660e01b8152600401610ff79291906123ab565b600060405180830381600087803b15801561101157600080fd5b505af1158015611025573d6000803e3d6000fd5b5050505050565b6000600c60008373ffffffffffffffffffffffffffffffffffffffff1673ffffffffffffffffffffffffffffffffffffffff168152602001908152602001600020549050919050565b6000600f60008373ffffffffffffffffffffffffffffffffffffffff1673ffffffffffffffffffffffffffffffffffffffff168152602001908152602001600020549050919050565b6000600454905090565b80600260009054906101000a900473ffffffffffffffffffffffffffffffffffffffff1673ffffffffffffffffffffffffffffffffffffffff166370a08231336040518263ffffffff1660e01b81526004016111249190612206565b60206040518083038186803b15801561113c57600080fd5b505afa158015611150573d6000803e3d6000fd5b505050506040513d601f19601f820116820180604052508101906111749190612236565b10156111b5576040517f08c379a00000000000000000000000000000000000000000000000000000000081526004016111ac9061246f565b60405180910390fd5b42601160003373ffffffffffffffffffffffffffffffffffffffff1673ffffffffffffffffffffffffffffffffffffffff1681526020019081526020016000208190555080600c60003373ffffffffffffffffffffffffffffffffffffffff1673ffffffffffffffffffffffffffffffffffffffff168152602001908152602001600020600082825461124891906121a1565b92505081905550600260009054906101000a900473ffffffffffffffffffffffffffffffffffffffff1673ffffffffffffffffffffffffffffffffffffffff166323b872dd3330846040518463ffffffff1660e01b81526004016112ae939291906122e0565b602060405180830381600087803b1580156112c857600080fd5b505af11580156112dc573d6000803e3d6000fd5b505050506040513d601f19601f820116820180604052508101906113009190612343565b5060006002826113109190612116565b905061131c3382611559565b806004600082825461132e91906120b3565b92505081905550600360009054906101000a900473ffffffffffffffffffffffffffffffffffffffff1673ffffffffffffffffffffffffffffffffffffffff1663a9059cbb33836040518363ffffffff1660e01b81526004016113929291906123d4565b602060405180830381600087803b1580156113ac57600080fd5b505af11580156113c0573d6000803e3d6000fd5b505050506040513d601f19601f820116820180604052508101906113e49190612343565b5080600d60003373ffffffffffffffffffffffffffffffffffffffff1673ffffffffffffffffffffffffffffffffffffffff168152602001908152602001600020600082825461143491906121a1565b925050819055503373ffffffffffffffffffffffffffffffffffffffff167fd2b239deadbcb4baadbd0bef2a0d20d76becb200e80e43099a538d430b2ea0288242604051611483929190611def565b60405180910390a25050565b6000600360009054906101000a900473ffffffffffffffffffffffffffffffffffffffff1673ffffffffffffffffffffffffffffffffffffffff166370a08231306040518263ffffffff1660e01b81526004016114ec9190612206565b60206040518083038186803b15801561150457600080fd5b505afa158015611518573d6000803e3d6000fd5b505050506040513d601f19601f8201168201806040525081019061153c9190612236565b905090565b600b6020528060005260406000206000915090505481565b6007548111801561156b575060065481115b156115cd576001601260008473ffffffffffffffffffffffffffffffffffffffff1673ffffffffffffffffffffffffffffffffffffffff16815260200190815260200160002060006101000a81548160ff021916908315150217905550611626565b6000601260008473ffffffffffffffffffffffffffffffffffffffff1673ffffffffffffffffffffffffffffffffffffffff16815260200190815260200160002060006101000a81548160ff0219169083151502179055505b5050565b600c6020528060005260406000206000915090505481565b600160009054906101000a900473ffffffffffffffffffffffffffffffffffffffff1681565b60126020528060005260406000206000915054906101000a900460ff1681565b600e6020528060005260406000206000915090505481565b60085481565b600d6020528060005260406000206000915090505481565b600a5481565b60095481565b60116020528060005260406000206000915090505481565b60106020528060005260406000206000915090505481565b600260009054906101000a900473ffffffffffffffffffffffffffffffffffffffff1681565b6000600b60008373ffffffffffffffffffffffffffffffffffffffff1673ffffffffffffffffffffffffffffffffffffffff168152602001908152602001600020549050919050565b6000600d60008373ffffffffffffffffffffffffffffffffffffffff1673ffffffffffffffffffffffffffffffffffffffff168152602001908152602001600020549050919050565b6000600d60003373ffffffffffffffffffffffffffffffffffffffff1673ffffffffffffffffffffffffffffffffffffffff16815260200190815260200160002081905550806004600082825461180991906121a1565b92505081905550600360009054906101000a900473ffffffffffffffffffffffffffffffffffffffff1673ffffffffffffffffffffffffffffffffffffffff166323b872dd3330846040518463ffffffff1660e01b815260040161186f939291906122e0565b602060405180830381600087803b15801561188957600080fd5b505af115801561189d573d6000803e3d6000fd5b505050506040513d601f19601f820116820180604052508101906118c19190612343565b506000600c60003373ffffffffffffffffffffffffffffffffffffffff1673ffffffffffffffffffffffffffffffffffffffff168152602001908152602001600020549050600260009054906101000a900473ffffffffffffffffffffffffffffffffffffffff1673ffffffffffffffffffffffffffffffffffffffff1663a9059cbb33836040518363ffffffff1660e01b81526004016119639291906123d4565b602060405180830381600087803b15801561197d57600080fd5b505af1158015611991573d6000803e3d6000fd5b505050506040513d601f19601f820116820180604052508101906119b59190612343565b506000600c60003373ffffffffffffffffffffffffffffffffffffffff1673ffffffffffffffffffffffffffffffffffffffff168152602001908152602001600020819055503373ffffffffffffffffffffffffffffffffffffffff167f432f2abeedfc213d8be3c057e2598a48526e403d2da2cfedd0ae185930f3c20283604051611a419190611e18565b60405180910390a25050565b600080603c601060003373ffffffffffffffffffffffffffffffffffffffff1673ffffffffffffffffffffffffffffffffffffffff1681526020019081526020016000205442611a9d91906120b3565b611aa79190612116565b9050600062080520600a83600954670de0b6b3a7640000600b60003373ffffffffffffffffffffffffffffffffffffffff1673ffffffffffffffffffffffffffffffffffffffff16815260200190815260200160002054611b089190612116565b611b129190612147565b611b1c9190612147565b611b269190612147565b611b309190612116565b9050600081600b60003373ffffffffffffffffffffffffffffffffffffffff1673ffffffffffffffffffffffffffffffffffffffff16815260200190815260200160002054611b7f91906121a1565b905080935050505090565b600360009054906101000a900473ffffffffffffffffffffffffffffffffffffffff1681565b600f6020528060005260406000206000915090505481565b6000600260009054906101000a900473ffffffffffffffffffffffffffffffffffffffff1673ffffffffffffffffffffffffffffffffffffffff166370a08231306040518263ffffffff1660e01b8152600401611c259190612206565b60206040518083038186803b158015611c3d57600080fd5b505afa158015611c51573d6000803e3d6000fd5b505050506040513d601f19601f82011682018060405250810190611c759190612236565b905090565b6000600e60008373ffffffffffffffffffffffffffffffffffffffff1673ffffffffffffffffffffffffffffffffffffffff168152602001908152602001600020549050919050565b60008054906101000a900473ffffffffffffffffffffffffffffffffffffffff1673ffffffffffffffffffffffffffffffffffffffff163373ffffffffffffffffffffffffffffffffffffffff1614611d51576040517f08c379a0000000000000000000000000000000000000000000000000000000008152600401611d48906124db565b60405180910390fd5b60008054906101000a900473ffffffffffffffffffffffffffffffffffffffff1673ffffffffffffffffffffffffffffffffffffffff166108fc829081150290604051600060405180830381858888f19350505050158015611db7573d6000803e3d6000fd5b5050565b600080600283611dcb9190612116565b905080915050919050565b6000819050919050565b611de981611dd6565b82525050565b6000604082019050611e046000830185611de0565b611e116020830184611de0565b9392505050565b6000602082019050611e2d6000830184611de0565b92915050565b600080fd5b611e4181611dd6565b8114611e4c57600080fd5b50565b600081359050611e5e81611e38565b92915050565b600060208284031215611e7a57611e79611e33565b5b6000611e8884828501611e4f565b91505092915050565b600073ffffffffffffffffffffffffffffffffffffffff82169050919050565b6000611ebc82611e91565b9050919050565b611ecc81611eb1565b8114611ed757600080fd5b50565b600081359050611ee981611ec3565b92915050565b600060208284031215611f0557611f04611e33565b5b6000611f1384828501611eda565b91505092915050565b60008060408385031215611f3357611f32611e33565b5b6000611f4185828601611eda565b9250506020611f5285828601611e4f565b9150509250929050565b6000819050919050565b6000611f81611f7c611f7784611e91565b611f5c565b611e91565b9050919050565b6000611f9382611f66565b9050919050565b6000611fa582611f88565b9050919050565b611fb581611f9a565b82525050565b6000602082019050611fd06000830184611fac565b92915050565b60008115159050919050565b611feb81611fd6565b82525050565b60006020820190506120066000830184611fe2565b92915050565b600061201782611f88565b9050919050565b6120278161200c565b82525050565b6000602082019050612042600083018461201e565b92915050565b600061205382611f88565b9050919050565b61206381612048565b82525050565b600060208201905061207e600083018461205a565b92915050565b7f4e487b7100000000000000000000000000000000000000000000000000000000600052601160045260246000fd5b60006120be82611dd6565b91506120c983611dd6565b9250828210156120dc576120db612084565b5b828203905092915050565b7f4e487b7100000000000000000000000000000000000000000000000000000000600052601260045260246000fd5b600061212182611dd6565b915061212c83611dd6565b92508261213c5761213b6120e7565b5b828204905092915050565b600061215282611dd6565b915061215d83611dd6565b9250817fffffffffffffffffffffffffffffffffffffffffffffffffffffffffffffffff048311821515161561219657612195612084565b5b828202905092915050565b60006121ac82611dd6565b91506121b783611dd6565b9250827fffffffffffffffffffffffffffffffffffffffffffffffffffffffffffffffff038211156121ec576121eb612084565b5b828201905092915050565b61220081611eb1565b82525050565b600060208201905061221b60008301846121f7565b92915050565b60008151905061223081611e38565b92915050565b60006020828403121561224c5761224b611e33565b5b600061225a84828501612221565b91505092915050565b600082825260208201905092915050565b7f596f75206861766520696e73756666696369656e742045494e52000000000000600082015250565b60006122aa601a83612263565b91506122b582612274565b602082019050919050565b600060208201905081810360008301526122d98161229d565b9050919050565b60006060820190506122f560008301866121f7565b61230260208301856121f7565b61230f6040830184611de0565b949350505050565b61232081611fd6565b811461232b57600080fd5b50565b60008151905061233d81612317565b92915050565b60006020828403121561235957612358611e33565b5b60006123678482850161232e565b91505092915050565b6000819050919050565b600061239561239061238b84612370565b611f5c565b611dd6565b9050919050565b6123a58161237a565b82525050565b60006040820190506123c060008301856121f7565b6123cd602083018461239c565b9392505050565b60006040820190506123e960008301856121f7565b6123f66020830184611de0565b9392505050565b7f796f75206861766520696e73756666696369656e742045476f6c6420746f6b6560008201527f6e00000000000000000000000000000000000000000000000000000000000000602082015250565b6000612459602183612263565b9150612464826123fd565b604082019050919050565b600060208201905081810360008301526124888161244c565b9050919050565b7f4e6f742061206f776e6572000000000000000000000000000000000000000000600082015250565b60006124c5600b83612263565b91506124d08261248f565b602082019050919050565b600060208201905081810360008301526124f4816124b8565b905091905056fea26469706673582212207918617f2b25993cfd2c576bf66b00af882dfee5de74eea9a7dd61f168ddef9464736f6c63430008080033",
  "immutableReferences": {},
  "source": "// SPDX-License-Identifier: MIT\n\npragma solidity 0.8.8;\n\nimport \"./LPToken.sol\";\nimport \"./EGoldToken.sol\";\nimport \"./EINRToken.sol\";\n//import \"truffle/console.sol\";\n\n\ncontract LendingPool{\n    //address of owner of this contract\n    address payable admin;\n    //instance of Lptoken\n    LPToken public lpToken;\n    //instance of EGoldToken\n    EGoldToken public eGoldToken;\n    //instance of EINRToken\n    EINRToken public eINRToken;\n    //total supply of EINR in lending pool\n    uint256 public totalSupply;\n\n    address payable wallet = payable(0xa81A0B8f163EAe6E4265964BC2b8975c44119b4B);\n\n    uint256 thresholdLimitBorrow = 1500 * 10 ** 18;\n    uint256 thresholdLimitLender = 1000 * 10 ** 18;\n\n    uint public interestRateBorrower = 1000; //10% for borrower\n    uint256 public interestRateLender = 800; //8% for lender \n    uint256 public interestRateContract = 200; //2%  application fee commission\n\n   \n    mapping(address => uint256)public balanceOfEINR;\n\n    mapping(address => uint256)public balanceOfEGold;\n\n    mapping(address => uint256)public borrowEINRAmount;\n\n    mapping(address =>uint256) public userRepayAmount;\n\n    mapping(address => uint256) public contractInterest;\n\n    mapping(address => uint256)public depositStartTime;\n\n    mapping(address => uint256)public borrowedTime;\n\n    mapping(address =>bool) public usersKYCchecks;\n\n    modifier onlyAdmin(){\n        require(msg.sender == admin,\"Not a owner\");\n        _;\n    }\n    event Deposited(address indexed account, uint256 eINRamount, uint256 startDepositTime);\n    event Withdrawed(address indexed account, uint256 amount);\n    event Borrowedloan(address indexed account,uint256 amount, uint256 startBorrowTime);\n    event Repayedloan(address indexed account, uint256 amount);\n\n    constructor(address _eINRToken, address _eGoldToken, address _lpToken) {\n        admin = payable(msg.sender);\n        eINRToken = EINRToken(_eINRToken);\n        eGoldToken = EGoldToken(_eGoldToken);\n        lpToken = LPToken(_lpToken);       \n    }\n\n    function checkKYCForUsers(address account,uint256 _amount)public \n    {\n        if(_amount >thresholdLimitLender && _amount > thresholdLimitBorrow){\n            usersKYCchecks[account]= true;\n        }else{\n            usersKYCchecks[account]= false;\n        }\n    }\n\n    function depositeINRToken(uint256 _EINRamount) external{\n        checkKYCForUsers(msg.sender, _EINRamount);\n        require(_EINRamount > 0 && eINRToken.balanceOf(msg.sender) >= _EINRamount,\"You have insufficient EINR\");\n        //uint256 allowance = usdc.allowance(msg.sender, address(this));\n        balanceOfEINR[msg.sender] += _EINRamount;\n        eINRToken.transferFrom(msg.sender, address(this), _EINRamount);\n        depositStartTime[msg.sender] = block.timestamp; \n        totalSupply += _EINRamount;\n        emit Deposited(msg.sender, _EINRamount, block.timestamp);\n        //get lP token as a proof of receipt \n        lpToken.mint(msg.sender,1000 );\n    }\n\n    function getAmountWithInterest() public view returns(uint256){\n       //require(_EINRamount > 0 && balanceOfEINR[msg.sender] == _EINRamount , \"Amount should not be 0\");\n       uint256 periodLock = (block.timestamp - depositStartTime[msg.sender])/ 60;\n       //console.log(periodLock, \"Get the deposit lock time here\");\n       uint256 interestGain = (((balanceOfEINR[msg.sender]/1e18) * interestRateLender * periodLock ) * 10 / (365 * 24 * 60));\n       //console.log(interestGain, \"Interest Gain Per min\");\n       uint256 withdrawAmount = balanceOfEINR[msg.sender] + interestGain;\n       // console.log(withdrawAmount, \"Amount calculated for Investor with Interest\");\n       return (withdrawAmount);\n    }\n\n\n    //with 8% interest given to investor\n    function withDrawEINRToken(uint256 amountToWithdraw) external{\n        balanceOfEINR[msg.sender] = 0;\n        totalSupply -= amountToWithdraw;\n        eINRToken.transfer(msg.sender, amountToWithdraw);\n        emit Withdrawed(msg.sender, amountToWithdraw);\n        //lp token burnt after withdraw\n        lpToken.burn(msg.sender, 1000);\n        \n    }\n    function calculatedEINRloan(uint256 _collateralAmount) public view returns(uint256){\n        uint256 borrowEinrAmt = _collateralAmount/2 ;\n        return(borrowEinrAmt);\n    }\n\n    function borrowEINRLoan(uint256 _collateralAmount) external{\n        require(eGoldToken.balanceOf(msg.sender) >= _collateralAmount, \"you have insufficient EGold token\");\n        borrowedTime[msg.sender] = block.timestamp;\n        balanceOfEGold[msg.sender] += _collateralAmount;// track the amount given as collateral\n        eGoldToken.transferFrom(msg.sender, address(this), _collateralAmount); //2000 Egold token \n        uint256 EINRamount = _collateralAmount / 2; //loan borrowed is half the price of collateral\n        checkKYCForUsers(msg.sender, EINRamount);\n        totalSupply -= EINRamount;\n        eINRToken.transfer(msg.sender, EINRamount);  \n\n        borrowEINRAmount[msg.sender] += EINRamount;\n        // event emitted    \n        emit Borrowedloan(msg.sender, EINRamount, block.timestamp);\n\n    }\n\n    // function interestCalculation(uint256 _EINRamount) public view {\n    //     uint256 interestY = (((_EINRamount/10**20)* interestRateLender * 10000)  / (365 * 24 * 60));// interest for lender\n    //     console.log(interestY, \"8 % interest calculated for Lenders\");\n    //     uint256 interestX = (((_EINRamount/10**20) * interestRateContract * 10000) / (365 * 24 * 60 ));\n    //     console.log(interestX, \" 2% interest calculated for contract fee\");\n    //     //admin.transfer(interestX);//response\n    //     uint256 totalinterest = interestY + interestX;\n    //     console.log(totalinterest, \"check 10% here\");\n    // }\n\n    function getborrowerRepayAmount()external returns(uint256){\n        //require(eINRToken.balanceOf(msg.sender) > _EINRamount,\"you have insufficient balance\");\n        uint256 dueTime = (block.timestamp - borrowedTime[msg.sender])/60; \n       // console.log(dueTime, \"Get the loan time here\");\n        uint256 interestToRepay = (((borrowEINRAmount[msg.sender]/1e18)* interestRateBorrower * dueTime)* 10 /(365 * 24 * 60));// interest for lender\n        uint256 repayAmount = borrowEINRAmount[msg.sender] + interestToRepay;//interest added\n        //console.log(repayAmount, \"Amount to be paid by with Interest to the contract\");\n        userRepayAmount[msg.sender] += repayAmount;\n        return (repayAmount);\n    }\n\n    function calculateContractComission()external returns(uint256, uint256){\n        uint256 duration = (block.timestamp - borrowedTime[msg.sender])/60; \n        uint256 interestContract =(((borrowEINRAmount[msg.sender]/1e18)* interestRateContract * duration)* 10 /(365 * 24 * 60));// interest for contract        \n        contractInterest[msg.sender] += interestContract;\n        uint256 finalRepayAmount = userRepayAmount[msg.sender] - interestContract;\n        return (finalRepayAmount, interestContract);\n    }\n\n    function withDrawCommision(uint256 interestContract) external onlyAdmin{\n        admin.transfer(interestContract);        \n    }\n\n\n    function repayEINRLoan(uint256 finalRepayAmount)external {\n        //require(amountToRepay == totalAmountPray , \"User has insufficient Balance to repay the loan\");\n        borrowEINRAmount[msg.sender]= 0;//deduct the borrow amount from mapping borrow user mapping\n        totalSupply += finalRepayAmount ;\n        eINRToken.transferFrom(msg.sender ,address(this), finalRepayAmount);\n        uint256 repayCollateral = balanceOfEGold[msg.sender];\n        eGoldToken.transfer(msg.sender, repayCollateral);\n        \n        balanceOfEGold[msg.sender]= 0;\n        //event emitted\n        emit Repayedloan(msg.sender, finalRepayAmount);\n    }\n    \n    function getTotalOfSupplyEINRPool() public view returns(uint256){\n        return (totalSupply);\n    }\n\n    function getTotalOfBalanceEINR() public view returns(uint256){\n        return(eINRToken.balanceOf(address(this)));\n    }\n\n    function getTotalBalanceEGold() public view returns(uint256){\n        return(eGoldToken.balanceOf(address(this)));\n    }\n\n    function getOwnerDepositEINRBalance(address account) public view returns(uint256) {\n        return balanceOfEINR[account];\n    }\n\n    function getOwnerEGoldBalance(address account) public view returns(uint256){\n        return balanceOfEGold[account];\n    }\n\n    function getBorrowEINRAmount(address account) public view returns(uint256){\n        return borrowEINRAmount[account];\n    }\n\n    function getBalanceOfLPtoken(address account) public view returns(uint256){\n        return lpToken.balanceOf(account);\n    }\n\n    function getUserRepayAmount(address account) public view returns(uint256){\n        return userRepayAmount[account];\n    }\n\n    function getContractInterest(address account) public view returns(uint256){\n        return contractInterest[account];\n    }\n\n}\n",
  "sourcePath": "/home/neosoft/project/Defi_lending_POC/Solidity_contracts/contracts/LendingPool.sol",
  "compiler": {
    "name": "solc",
    "version": "0.8.8+commit.dddeac2f.Emscripten.clang"
  },
  "schemaVersion": "3.4.12",
  "updatedAt": "2023-03-03T14:38:44.607Z",
  "networkType": "ethereum",
  "devdoc": {
    "kind": "dev",
    "methods": {},
    "version": 1
  },
  "userdoc": {
    "kind": "user",
    "methods": {},
    "version": 1
  }
}