{
  "contractName": "LendingPool",
  "abi": [
    {
      "inputs": [
        {
          "internalType": "address",
          "name": "_eINRToken",
          "type": "address"
        },
        {
          "internalType": "address",
          "name": "_eGoldToken",
          "type": "address"
        },
        {
          "internalType": "address",
          "name": "_lpToken",
          "type": "address"
        }
      ],
      "stateMutability": "nonpayable",
      "type": "constructor"
    },
    {
      "anonymous": false,
      "inputs": [
        {
          "indexed": true,
          "internalType": "address",
          "name": "account",
          "type": "address"
        },
        {
          "indexed": false,
          "internalType": "uint256",
          "name": "amount",
          "type": "uint256"
        },
        {
          "indexed": false,
          "internalType": "uint256",
          "name": "startBorrowTime",
          "type": "uint256"
        }
      ],
      "name": "Borrowedloan",
      "type": "event"
    },
    {
      "anonymous": false,
      "inputs": [
        {
          "indexed": true,
          "internalType": "address",
          "name": "account",
          "type": "address"
        },
        {
          "indexed": false,
          "internalType": "uint256",
          "name": "eINRamount",
          "type": "uint256"
        },
        {
          "indexed": false,
          "internalType": "uint256",
          "name": "startDepositTime",
          "type": "uint256"
        }
      ],
      "name": "Deposited",
      "type": "event"
    },
    {
      "anonymous": false,
      "inputs": [
        {
          "indexed": true,
          "internalType": "address",
          "name": "account",
          "type": "address"
        },
        {
          "indexed": false,
          "internalType": "uint256",
          "name": "amount",
          "type": "uint256"
        }
      ],
      "name": "Repayedloan",
      "type": "event"
    },
    {
      "anonymous": false,
      "inputs": [
        {
          "indexed": true,
          "internalType": "address",
          "name": "account",
          "type": "address"
        },
        {
          "indexed": false,
          "internalType": "uint256",
          "name": "amount",
          "type": "uint256"
        }
      ],
      "name": "Withdrawed",
      "type": "event"
    },
    {
      "inputs": [
        {
          "internalType": "address",
          "name": "",
          "type": "address"
        }
      ],
      "name": "balanceOfEGold",
      "outputs": [
        {
          "internalType": "uint256",
          "name": "",
          "type": "uint256"
        }
      ],
      "stateMutability": "view",
      "type": "function",
      "constant": true
    },
    {
      "inputs": [
        {
          "internalType": "address",
          "name": "",
          "type": "address"
        }
      ],
      "name": "balanceOfEINR",
      "outputs": [
        {
          "internalType": "uint256",
          "name": "",
          "type": "uint256"
        }
      ],
      "stateMutability": "view",
      "type": "function",
      "constant": true
    },
    {
      "inputs": [
        {
          "internalType": "address",
          "name": "",
          "type": "address"
        }
      ],
      "name": "borrowEINRAmount",
      "outputs": [
        {
          "internalType": "uint256",
          "name": "",
          "type": "uint256"
        }
      ],
      "stateMutability": "view",
      "type": "function",
      "constant": true
    },
    {
      "inputs": [
        {
          "internalType": "address",
          "name": "",
          "type": "address"
        }
      ],
      "name": "borrowedTime",
      "outputs": [
        {
          "internalType": "uint256",
          "name": "",
          "type": "uint256"
        }
      ],
      "stateMutability": "view",
      "type": "function",
      "constant": true
    },
    {
      "inputs": [
        {
          "internalType": "address",
          "name": "",
          "type": "address"
        }
      ],
      "name": "depositStartTime",
      "outputs": [
        {
          "internalType": "uint256",
          "name": "",
          "type": "uint256"
        }
      ],
      "stateMutability": "view",
      "type": "function",
      "constant": true
    },
    {
      "inputs": [],
      "name": "eGoldToken",
      "outputs": [
        {
          "internalType": "contract EGoldToken",
          "name": "",
          "type": "address"
        }
      ],
      "stateMutability": "view",
      "type": "function",
      "constant": true
    },
    {
      "inputs": [],
      "name": "eINRToken",
      "outputs": [
        {
          "internalType": "contract EINRToken",
          "name": "",
          "type": "address"
        }
      ],
      "stateMutability": "view",
      "type": "function",
      "constant": true
    },
    {
      "inputs": [],
      "name": "interestRateBorrower",
      "outputs": [
        {
          "internalType": "uint256",
          "name": "",
          "type": "uint256"
        }
      ],
      "stateMutability": "view",
      "type": "function",
      "constant": true
    },
    {
      "inputs": [],
      "name": "interestRateContract",
      "outputs": [
        {
          "internalType": "uint256",
          "name": "",
          "type": "uint256"
        }
      ],
      "stateMutability": "view",
      "type": "function",
      "constant": true
    },
    {
      "inputs": [],
      "name": "interestRateLender",
      "outputs": [
        {
          "internalType": "uint256",
          "name": "",
          "type": "uint256"
        }
      ],
      "stateMutability": "view",
      "type": "function",
      "constant": true
    },
    {
      "inputs": [],
      "name": "lpToken",
      "outputs": [
        {
          "internalType": "contract LPToken",
          "name": "",
          "type": "address"
        }
      ],
      "stateMutability": "view",
      "type": "function",
      "constant": true
    },
    {
      "inputs": [],
      "name": "thresholdLimitBorrow",
      "outputs": [
        {
          "internalType": "uint256",
          "name": "",
          "type": "uint256"
        }
      ],
      "stateMutability": "view",
      "type": "function",
      "constant": true
    },
    {
      "inputs": [],
      "name": "thresholdLimitLender",
      "outputs": [
        {
          "internalType": "uint256",
          "name": "",
          "type": "uint256"
        }
      ],
      "stateMutability": "view",
      "type": "function",
      "constant": true
    },
    {
      "inputs": [],
      "name": "totalSupply",
      "outputs": [
        {
          "internalType": "uint256",
          "name": "",
          "type": "uint256"
        }
      ],
      "stateMutability": "view",
      "type": "function",
      "constant": true
    },
    {
      "inputs": [
        {
          "internalType": "address",
          "name": "",
          "type": "address"
        }
      ],
      "name": "userRepayAmount",
      "outputs": [
        {
          "internalType": "uint256",
          "name": "",
          "type": "uint256"
        }
      ],
      "stateMutability": "view",
      "type": "function",
      "constant": true
    },
    {
      "inputs": [
        {
          "internalType": "address",
          "name": "",
          "type": "address"
        }
      ],
      "name": "usersKYCchecks",
      "outputs": [
        {
          "internalType": "bool",
          "name": "",
          "type": "bool"
        }
      ],
      "stateMutability": "view",
      "type": "function",
      "constant": true
    },
    {
      "inputs": [
        {
          "internalType": "address",
          "name": "_user",
          "type": "address"
        }
      ],
      "name": "setKycForUser",
      "outputs": [],
      "stateMutability": "nonpayable",
      "type": "function"
    },
    {
      "inputs": [
        {
          "internalType": "uint256",
          "name": "_EINRamount",
          "type": "uint256"
        }
      ],
      "name": "depositeINRToken",
      "outputs": [],
      "stateMutability": "nonpayable",
      "type": "function"
    },
    {
      "inputs": [],
      "name": "getAmountWithInterest",
      "outputs": [
        {
          "internalType": "uint256",
          "name": "",
          "type": "uint256"
        }
      ],
      "stateMutability": "view",
      "type": "function",
      "constant": true
    },
    {
      "inputs": [
        {
          "internalType": "uint256",
          "name": "amountToWithdraw",
          "type": "uint256"
        }
      ],
      "name": "withDrawEINRToken",
      "outputs": [],
      "stateMutability": "nonpayable",
      "type": "function"
    },
    {
      "inputs": [
        {
          "internalType": "uint256",
          "name": "_collateralAmount",
          "type": "uint256"
        }
      ],
      "name": "calculatedEINRloan",
      "outputs": [
        {
          "internalType": "uint256",
          "name": "",
          "type": "uint256"
        }
      ],
      "stateMutability": "view",
      "type": "function",
      "constant": true
    },
    {
      "inputs": [
        {
          "internalType": "uint256",
          "name": "_collateralAmount",
          "type": "uint256"
        }
      ],
      "name": "borrowEINRLoan",
      "outputs": [],
      "stateMutability": "nonpayable",
      "type": "function"
    },
    {
      "inputs": [],
      "name": "getborrowerRepayAmount",
      "outputs": [
        {
          "internalType": "uint256",
          "name": "",
          "type": "uint256"
        }
      ],
      "stateMutability": "nonpayable",
      "type": "function"
    },
    {
      "inputs": [
        {
          "internalType": "uint256",
          "name": "finalRepayAmount",
          "type": "uint256"
        }
      ],
      "name": "repayEINRLoan",
      "outputs": [],
      "stateMutability": "nonpayable",
      "type": "function"
    },
    {
      "inputs": [],
      "name": "getTotalOfSupplyEINRPool",
      "outputs": [
        {
          "internalType": "uint256",
          "name": "",
          "type": "uint256"
        }
      ],
      "stateMutability": "view",
      "type": "function",
      "constant": true
    },
    {
      "inputs": [],
      "name": "getTotalOfBalanceEINR",
      "outputs": [
        {
          "internalType": "uint256",
          "name": "",
          "type": "uint256"
        }
      ],
      "stateMutability": "view",
      "type": "function",
      "constant": true
    },
    {
      "inputs": [],
      "name": "getTotalBalanceEGold",
      "outputs": [
        {
          "internalType": "uint256",
          "name": "",
          "type": "uint256"
        }
      ],
      "stateMutability": "view",
      "type": "function",
      "constant": true
    },
    {
      "inputs": [
        {
          "internalType": "address",
          "name": "account",
          "type": "address"
        }
      ],
      "name": "getOwnerDepositEINRBalance",
      "outputs": [
        {
          "internalType": "uint256",
          "name": "",
          "type": "uint256"
        }
      ],
      "stateMutability": "view",
      "type": "function",
      "constant": true
    },
    {
      "inputs": [
        {
          "internalType": "address",
          "name": "account",
          "type": "address"
        }
      ],
      "name": "getOwnerEGoldBalance",
      "outputs": [
        {
          "internalType": "uint256",
          "name": "",
          "type": "uint256"
        }
      ],
      "stateMutability": "view",
      "type": "function",
      "constant": true
    },
    {
      "inputs": [
        {
          "internalType": "address",
          "name": "account",
          "type": "address"
        }
      ],
      "name": "getBorrowEINRAmount",
      "outputs": [
        {
          "internalType": "uint256",
          "name": "",
          "type": "uint256"
        }
      ],
      "stateMutability": "view",
      "type": "function",
      "constant": true
    },
    {
      "inputs": [
        {
          "internalType": "address",
          "name": "account",
          "type": "address"
        }
      ],
      "name": "getBalanceOfLPtoken",
      "outputs": [
        {
          "internalType": "uint256",
          "name": "",
          "type": "uint256"
        }
      ],
      "stateMutability": "view",
      "type": "function",
      "constant": true
    },
    {
      "inputs": [
        {
          "internalType": "address",
          "name": "account",
          "type": "address"
        }
      ],
      "name": "getUserRepayAmount",
      "outputs": [
        {
          "internalType": "uint256",
          "name": "",
          "type": "uint256"
        }
      ],
      "stateMutability": "view",
      "type": "function",
      "constant": true
    }
  ],
  "bytecode": "0x608060405273a81a0b8f163eae6e4265964bc2b8975c44119b4b600560006101000a81548173ffffffffffffffffffffffffffffffffffffffff021916908373ffffffffffffffffffffffffffffffffffffffff160217905550685150ae84a8cdf00000600655683635c9adc5dea000006007556103e860085561032060095560c8600a553480156200009157600080fd5b5060405162002857380380620028578339818101604052810190620000b791906200022d565b336000806101000a81548173ffffffffffffffffffffffffffffffffffffffff021916908373ffffffffffffffffffffffffffffffffffffffff16021790555082600360006101000a81548173ffffffffffffffffffffffffffffffffffffffff021916908373ffffffffffffffffffffffffffffffffffffffff16021790555081600260006101000a81548173ffffffffffffffffffffffffffffffffffffffff021916908373ffffffffffffffffffffffffffffffffffffffff16021790555080600160006101000a81548173ffffffffffffffffffffffffffffffffffffffff021916908373ffffffffffffffffffffffffffffffffffffffff16021790555050505062000289565b600080fd5b600073ffffffffffffffffffffffffffffffffffffffff82169050919050565b6000620001f582620001c8565b9050919050565b6200020781620001e8565b81146200021357600080fd5b50565b6000815190506200022781620001fc565b92915050565b600080600060608486031215620002495762000248620001c3565b5b6000620002598682870162000216565b93505060206200026c8682870162000216565b92505060406200027f8682870162000216565b9150509250925092565b6125be80620002996000396000f3fe608060405234801561001057600080fd5b50600436106101f05760003560e01c806371f07e5c1161010f578063ac22a7e3116100a2578063dcd63b9211610071578063dcd63b92146105f9578063ef36561014610617578063f0be087b14610635578063f3ba6c7314610665576101f0565b8063ac22a7e314610571578063b1653461146105a1578063cf32f42f146105bd578063da69badc146105db576101f0565b80638a76a112116100de5780638a76a112146104c35780639d06d413146104f3578063a1c6502e14610523578063a657f2fd14610541576101f0565b806371f07e5c146104395780637d53dec11461045757806382ddc10014610487578063850bab7e146104a5576101f0565b80634d68086b1161018757806356c76f391161015657806356c76f391461038b5780635fcbd285146103bb578063641be7f2146103d95780636a4555aa14610409576101f0565b80634d68086b146103035780634f0587431461031f578063520aaefe1461033d5780635534ef011461035b576101f0565b80631d8c1180116101c35780631d8c1180146102695780631f928133146102995780632f7ca059146102b5578063433c7151146102e5576101f0565b806305187e83146101f557806314c807af146102135780631548ceca1461022f57806318160ddd1461024b575b600080fd5b6101fd610695565b60405161020a9190611dd8565b60405180910390f35b61022d60048036038101906102289190611e56565b610828565b005b61024960048036038101906102449190611eaf565b61099e565b005b610253610cde565b6040516102609190611dd8565b60405180910390f35b610283600480360381019061027e9190611e56565b610ce4565b6040516102909190611dd8565b60405180910390f35b6102b360048036038101906102ae9190611eaf565b610d9d565b005b6102cf60048036038101906102ca9190611e56565b611013565b6040516102dc9190611dd8565b60405180910390f35b6102ed611061565b6040516102fa9190611dd8565b60405180910390f35b61031d60048036038101906103189190611eaf565b61106b565b005b610327611428565b6040516103349190611dd8565b60405180910390f35b6103456114df565b6040516103529190611dd8565b60405180910390f35b61037560048036038101906103709190611e56565b6114e5565b6040516103829190611dd8565b60405180910390f35b6103a560048036038101906103a09190611e56565b6114fd565b6040516103b29190611dd8565b60405180910390f35b6103c3611515565b6040516103d09190611f3b565b60405180910390f35b6103f360048036038101906103ee9190611e56565b61153b565b6040516104009190611f71565b60405180910390f35b610423600480360381019061041e9190611e56565b61155b565b6040516104309190611dd8565b60405180910390f35b610441611573565b60405161044e9190611dd8565b60405180910390f35b610471600480360381019061046c9190611e56565b611579565b60405161047e9190611dd8565b60405180910390f35b61048f611591565b60405161049c9190611dd8565b60405180910390f35b6104ad611597565b6040516104ba9190611dd8565b60405180910390f35b6104dd60048036038101906104d89190611e56565b61159d565b6040516104ea9190611dd8565b60405180910390f35b61050d60048036038101906105089190611e56565b6115b5565b60405161051a9190611dd8565b60405180910390f35b61052b6115cd565b6040516105389190611fad565b60405180910390f35b61055b60048036038101906105569190611e56565b6115f3565b6040516105689190611dd8565b60405180910390f35b61058b60048036038101906105869190611e56565b611641565b6040516105989190611dd8565b60405180910390f35b6105bb60048036038101906105b69190611eaf565b61168f565b005b6105c5611b36565b6040516105d29190611dd8565b60405180910390f35b6105e3611c73565b6040516105f09190611dd8565b60405180910390f35b610601611c79565b60405161060e9190611fe9565b60405180910390f35b61061f611c9f565b60405161062c9190611dd8565b60405180910390f35b61064f600480360381019061064a9190611e56565b611d56565b60405161065c9190611dd8565b60405180910390f35b61067f600480360381019061067a9190611eaf565b611da4565b60405161068c9190611dd8565b60405180910390f35b600080603c600f60003373ffffffffffffffffffffffffffffffffffffffff1673ffffffffffffffffffffffffffffffffffffffff16815260200190815260200160002054426106e59190612033565b6106ef9190612096565b9050600062080520600a83600854670de0b6b3a7640000600d60003373ffffffffffffffffffffffffffffffffffffffff1673ffffffffffffffffffffffffffffffffffffffff168152602001908152602001600020546107509190612096565b61075a91906120c7565b61076491906120c7565b61076e91906120c7565b6107789190612096565b9050600081600d60003373ffffffffffffffffffffffffffffffffffffffff1673ffffffffffffffffffffffffffffffffffffffff168152602001908152602001600020546107c79190612121565b905080601160003373ffffffffffffffffffffffffffffffffffffffff1673ffffffffffffffffffffffffffffffffffffffff16815260200190815260200160002060008282546108189190612121565b9250508190555080935050505090565b3373ffffffffffffffffffffffffffffffffffffffff1660008054906101000a900473ffffffffffffffffffffffffffffffffffffffff1673ffffffffffffffffffffffffffffffffffffffff16146108b6576040517f08c379a00000000000000000000000000000000000000000000000000000000081526004016108ad906121d4565b60405180910390fd5b601060008273ffffffffffffffffffffffffffffffffffffffff1673ffffffffffffffffffffffffffffffffffffffff16815260200190815260200160002060009054906101000a900460ff1615610943576040517f08c379a000000000000000000000000000000000000000000000000000000000815260040161093a90612240565b60405180910390fd5b6001601060008373ffffffffffffffffffffffffffffffffffffffff1673ffffffffffffffffffffffffffffffffffffffff16815260200190815260200160002060006101000a81548160ff02191690831515021790555050565b600081118015610a58575080600360009054906101000a900473ffffffffffffffffffffffffffffffffffffffff1673ffffffffffffffffffffffffffffffffffffffff166370a08231336040518263ffffffff1660e01b8152600401610a05919061226f565b60206040518083038186803b158015610a1d57600080fd5b505afa158015610a31573d6000803e3d6000fd5b505050506040513d601f19601f82011682018060405250810190610a55919061229f565b10155b610a97576040517f08c379a0000000000000000000000000000000000000000000000000000000008152600401610a8e90612318565b60405180910390fd5b80600b60003373ffffffffffffffffffffffffffffffffffffffff1673ffffffffffffffffffffffffffffffffffffffff1681526020019081526020016000206000828254610ae69190612121565b92505081905550600360009054906101000a900473ffffffffffffffffffffffffffffffffffffffff1673ffffffffffffffffffffffffffffffffffffffff166323b872dd3330846040518463ffffffff1660e01b8152600401610b4c93929190612338565b602060405180830381600087803b158015610b6657600080fd5b505af1158015610b7a573d6000803e3d6000fd5b505050506040513d601f19601f82011682018060405250810190610b9e919061239b565b5042600e60003373ffffffffffffffffffffffffffffffffffffffff1673ffffffffffffffffffffffffffffffffffffffff168152602001908152602001600020819055508060046000828254610bf59190612121565b925050819055503373ffffffffffffffffffffffffffffffffffffffff167f73a19dd210f1a7f902193214c0ee91dd35ee5b4d920cba8d519eca65a7b488ca8242604051610c449291906123c8565b60405180910390a2600160009054906101000a900473ffffffffffffffffffffffffffffffffffffffff1673ffffffffffffffffffffffffffffffffffffffff166340c10f1933836040518363ffffffff1660e01b8152600401610ca99291906123f1565b600060405180830381600087803b158015610cc357600080fd5b505af1158015610cd7573d6000803e3d6000fd5b5050505050565b60045481565b600080600160009054906101000a900473ffffffffffffffffffffffffffffffffffffffff1673ffffffffffffffffffffffffffffffffffffffff166370a08231846040518263ffffffff1660e01b8152600401610d42919061226f565b60206040518083038186803b158015610d5a57600080fd5b505afa158015610d6e573d6000803e3d6000fd5b505050506040513d601f19601f82011682018060405250810190610d92919061229f565b905080915050919050565b600360009054906101000a900473ffffffffffffffffffffffffffffffffffffffff1673ffffffffffffffffffffffffffffffffffffffff1663a9059cbb33836040518363ffffffff1660e01b8152600401610dfa9291906123f1565b602060405180830381600087803b158015610e1457600080fd5b505af1158015610e28573d6000803e3d6000fd5b505050506040513d601f19601f82011682018060405250810190610e4c919061239b565b508060046000828254610e5f9190612033565b925050819055503373ffffffffffffffffffffffffffffffffffffffff167f6cca423c6ffc06e62a0acc433965e074b11c28479b0449250ce3ff65ac9e39fe82604051610eac9190611dd8565b60405180910390a2600160009054906101000a900473ffffffffffffffffffffffffffffffffffffffff1673ffffffffffffffffffffffffffffffffffffffff16639dc29fac33600b60003373ffffffffffffffffffffffffffffffffffffffff1673ffffffffffffffffffffffffffffffffffffffff168152602001908152602001600020546040518363ffffffff1660e01b8152600401610f509291906123f1565b600060405180830381600087803b158015610f6a57600080fd5b505af1158015610f7e573d6000803e3d6000fd5b5050505080600b60003373ffffffffffffffffffffffffffffffffffffffff1673ffffffffffffffffffffffffffffffffffffffff16815260200190815260200160002054610fcd9190612033565b600b60003373ffffffffffffffffffffffffffffffffffffffff1673ffffffffffffffffffffffffffffffffffffffff1681526020019081526020016000208190555050565b600080600c60008473ffffffffffffffffffffffffffffffffffffffff1673ffffffffffffffffffffffffffffffffffffffff16815260200190815260200160002054905080915050919050565b6000600454905090565b80600260009054906101000a900473ffffffffffffffffffffffffffffffffffffffff1673ffffffffffffffffffffffffffffffffffffffff166370a08231336040518263ffffffff1660e01b81526004016110c7919061226f565b60206040518083038186803b1580156110df57600080fd5b505afa1580156110f3573d6000803e3d6000fd5b505050506040513d601f19601f82011682018060405250810190611117919061229f565b1015611158576040517f08c379a000000000000000000000000000000000000000000000000000000000815260040161114f9061248c565b60405180910390fd5b80600c60003373ffffffffffffffffffffffffffffffffffffffff1673ffffffffffffffffffffffffffffffffffffffff16815260200190815260200160002060008282546111a79190612121565b92505081905550600260009054906101000a900473ffffffffffffffffffffffffffffffffffffffff1673ffffffffffffffffffffffffffffffffffffffff166323b872dd3330846040518463ffffffff1660e01b815260040161120d93929190612338565b602060405180830381600087803b15801561122757600080fd5b505af115801561123b573d6000803e3d6000fd5b505050506040513d601f19601f8201168201806040525081019061125f919061239b565b50600060028261126f9190612096565b905080600460008282546112839190612033565b92505081905550600360009054906101000a900473ffffffffffffffffffffffffffffffffffffffff1673ffffffffffffffffffffffffffffffffffffffff1663a9059cbb33836040518363ffffffff1660e01b81526004016112e79291906123f1565b602060405180830381600087803b15801561130157600080fd5b505af1158015611315573d6000803e3d6000fd5b505050506040513d601f19601f82011682018060405250810190611339919061239b565b5042600f60003373ffffffffffffffffffffffffffffffffffffffff1673ffffffffffffffffffffffffffffffffffffffff1681526020019081526020016000208190555080600d60003373ffffffffffffffffffffffffffffffffffffffff1673ffffffffffffffffffffffffffffffffffffffff16815260200190815260200160002060008282546113cd9190612121565b925050819055503373ffffffffffffffffffffffffffffffffffffffff167fd2b239deadbcb4baadbd0bef2a0d20d76becb200e80e43099a538d430b2ea028824260405161141c9291906123c8565b60405180910390a25050565b600080600360009054906101000a900473ffffffffffffffffffffffffffffffffffffffff1673ffffffffffffffffffffffffffffffffffffffff166370a08231306040518263ffffffff1660e01b8152600401611486919061226f565b60206040518083038186803b15801561149e57600080fd5b505afa1580156114b2573d6000803e3d6000fd5b505050506040513d601f19601f820116820180604052508101906114d6919061229f565b90508091505090565b60075481565b600b6020528060005260406000206000915090505481565b600c6020528060005260406000206000915090505481565b600160009054906101000a900473ffffffffffffffffffffffffffffffffffffffff1681565b60106020528060005260406000206000915054906101000a900460ff1681565b60116020528060005260406000206000915090505481565b60085481565b600d6020528060005260406000206000915090505481565b600a5481565b60095481565b600f6020528060005260406000206000915090505481565b600e6020528060005260406000206000915090505481565b600260009054906101000a900473ffffffffffffffffffffffffffffffffffffffff1681565b600080600b60008473ffffffffffffffffffffffffffffffffffffffff1673ffffffffffffffffffffffffffffffffffffffff16815260200190815260200160002054905080915050919050565b600080600d60008473ffffffffffffffffffffffffffffffffffffffff1673ffffffffffffffffffffffffffffffffffffffff16815260200190815260200160002054905080915050919050565b600081116116d2576040517f08c379a00000000000000000000000000000000000000000000000000000000081526004016116c99061251e565b60405180910390fd5b6000603c600f60003373ffffffffffffffffffffffffffffffffffffffff1673ffffffffffffffffffffffffffffffffffffffff16815260200190815260200160002054426117219190612033565b61172b9190612096565b9050600062080520600a83600a54670de0b6b3a7640000600d60003373ffffffffffffffffffffffffffffffffffffffff1673ffffffffffffffffffffffffffffffffffffffff1681526020019081526020016000205461178c9190612096565b61179691906120c7565b6117a091906120c7565b6117aa91906120c7565b6117b49190612096565b9050600360009054906101000a900473ffffffffffffffffffffffffffffffffffffffff1673ffffffffffffffffffffffffffffffffffffffff1663a9059cbb600560009054906101000a900473ffffffffffffffffffffffffffffffffffffffff16836040518363ffffffff1660e01b815260040161183592919061255f565b602060405180830381600087803b15801561184f57600080fd5b505af1158015611863573d6000803e3d6000fd5b505050506040513d601f19601f82011682018060405250810190611887919061239b565b50600081846118969190612033565b9050600360009054906101000a900473ffffffffffffffffffffffffffffffffffffffff1673ffffffffffffffffffffffffffffffffffffffff166323b872dd3330846040518463ffffffff1660e01b81526004016118f793929190612338565b602060405180830381600087803b15801561191157600080fd5b505af1158015611925573d6000803e3d6000fd5b505050506040513d601f19601f82011682018060405250810190611949919061239b565b50806004600082825461195c9190612121565b925050819055506000600d60003373ffffffffffffffffffffffffffffffffffffffff1673ffffffffffffffffffffffffffffffffffffffff168152602001908152602001600020819055506000600c60003373ffffffffffffffffffffffffffffffffffffffff1673ffffffffffffffffffffffffffffffffffffffff168152602001908152602001600020549050600260009054906101000a900473ffffffffffffffffffffffffffffffffffffffff1673ffffffffffffffffffffffffffffffffffffffff1663a9059cbb33836040518363ffffffff1660e01b8152600401611a499291906123f1565b602060405180830381600087803b158015611a6357600080fd5b505af1158015611a77573d6000803e3d6000fd5b505050506040513d601f19601f82011682018060405250810190611a9b919061239b565b506000600c60003373ffffffffffffffffffffffffffffffffffffffff1673ffffffffffffffffffffffffffffffffffffffff168152602001908152602001600020819055503373ffffffffffffffffffffffffffffffffffffffff167f432f2abeedfc213d8be3c057e2598a48526e403d2da2cfedd0ae185930f3c20286604051611b279190611dd8565b60405180910390a25050505050565b600080603c600e60003373ffffffffffffffffffffffffffffffffffffffff1673ffffffffffffffffffffffffffffffffffffffff1681526020019081526020016000205442611b869190612033565b611b909190612096565b9050600062080520600a83600954670de0b6b3a7640000600b60003373ffffffffffffffffffffffffffffffffffffffff1673ffffffffffffffffffffffffffffffffffffffff16815260200190815260200160002054611bf19190612096565b611bfb91906120c7565b611c0591906120c7565b611c0f91906120c7565b611c199190612096565b9050600081600b60003373ffffffffffffffffffffffffffffffffffffffff1673ffffffffffffffffffffffffffffffffffffffff16815260200190815260200160002054611c689190612121565b905080935050505090565b60065481565b600360009054906101000a900473ffffffffffffffffffffffffffffffffffffffff1681565b600080600260009054906101000a900473ffffffffffffffffffffffffffffffffffffffff1673ffffffffffffffffffffffffffffffffffffffff166370a08231306040518263ffffffff1660e01b8152600401611cfd919061226f565b60206040518083038186803b158015611d1557600080fd5b505afa158015611d29573d6000803e3d6000fd5b505050506040513d601f19601f82011682018060405250810190611d4d919061229f565b90508091505090565b600080601160008473ffffffffffffffffffffffffffffffffffffffff1673ffffffffffffffffffffffffffffffffffffffff16815260200190815260200160002054905080915050919050565b600080600283611db49190612096565b905080915050919050565b6000819050919050565b611dd281611dbf565b82525050565b6000602082019050611ded6000830184611dc9565b92915050565b600080fd5b600073ffffffffffffffffffffffffffffffffffffffff82169050919050565b6000611e2382611df8565b9050919050565b611e3381611e18565b8114611e3e57600080fd5b50565b600081359050611e5081611e2a565b92915050565b600060208284031215611e6c57611e6b611df3565b5b6000611e7a84828501611e41565b91505092915050565b611e8c81611dbf565b8114611e9757600080fd5b50565b600081359050611ea981611e83565b92915050565b600060208284031215611ec557611ec4611df3565b5b6000611ed384828501611e9a565b91505092915050565b6000819050919050565b6000611f01611efc611ef784611df8565b611edc565b611df8565b9050919050565b6000611f1382611ee6565b9050919050565b6000611f2582611f08565b9050919050565b611f3581611f1a565b82525050565b6000602082019050611f506000830184611f2c565b92915050565b60008115159050919050565b611f6b81611f56565b82525050565b6000602082019050611f866000830184611f62565b92915050565b6000611f9782611f08565b9050919050565b611fa781611f8c565b82525050565b6000602082019050611fc26000830184611f9e565b92915050565b6000611fd382611f08565b9050919050565b611fe381611fc8565b82525050565b6000602082019050611ffe6000830184611fda565b92915050565b7f4e487b7100000000000000000000000000000000000000000000000000000000600052601160045260246000fd5b600061203e82611dbf565b915061204983611dbf565b92508282101561205c5761205b612004565b5b828203905092915050565b7f4e487b7100000000000000000000000000000000000000000000000000000000600052601260045260246000fd5b60006120a182611dbf565b91506120ac83611dbf565b9250826120bc576120bb612067565b5b828204905092915050565b60006120d282611dbf565b91506120dd83611dbf565b9250817fffffffffffffffffffffffffffffffffffffffffffffffffffffffffffffffff048311821515161561211657612115612004565b5b828202905092915050565b600061212c82611dbf565b915061213783611dbf565b9250827fffffffffffffffffffffffffffffffffffffffffffffffffffffffffffffffff0382111561216c5761216b612004565b5b828201905092915050565b600082825260208201905092915050565b7f4e6f742061646d696e0000000000000000000000000000000000000000000000600082015250565b60006121be600983612177565b91506121c982612188565b602082019050919050565b600060208201905081810360008301526121ed816121b1565b9050919050565b7f4b796320616c726561647920646f6e6500000000000000000000000000000000600082015250565b600061222a601083612177565b9150612235826121f4565b602082019050919050565b600060208201905081810360008301526122598161221d565b9050919050565b61226981611e18565b82525050565b60006020820190506122846000830184612260565b92915050565b60008151905061229981611e83565b92915050565b6000602082840312156122b5576122b4611df3565b5b60006122c38482850161228a565b91505092915050565b7f596f75206861766520696e73756666696369656e742045494e52000000000000600082015250565b6000612302601a83612177565b915061230d826122cc565b602082019050919050565b60006020820190508181036000830152612331816122f5565b9050919050565b600060608201905061234d6000830186612260565b61235a6020830185612260565b6123676040830184611dc9565b949350505050565b61237881611f56565b811461238357600080fd5b50565b6000815190506123958161236f565b92915050565b6000602082840312156123b1576123b0611df3565b5b60006123bf84828501612386565b91505092915050565b60006040820190506123dd6000830185611dc9565b6123ea6020830184611dc9565b9392505050565b60006040820190506124066000830185612260565b6124136020830184611dc9565b9392505050565b7f796f75206861766520696e73756666696369656e742045476f6c6420746f6b6560008201527f6e00000000000000000000000000000000000000000000000000000000000000602082015250565b6000612476602183612177565b91506124818261241a565b604082019050919050565b600060208201905081810360008301526124a581612469565b9050919050565b7f557365722068617320696e73756666696369656e742042616c616e636520746f60008201527f20726570617920746865206c6f616e0000000000000000000000000000000000602082015250565b6000612508602f83612177565b9150612513826124ac565b604082019050919050565b60006020820190508181036000830152612537816124fb565b9050919050565b600061254982611f08565b9050919050565b6125598161253e565b82525050565b60006040820190506125746000830185612550565b6125816020830184611dc9565b939250505056fea26469706673582212203ef1bdf4814be1da21beaff43b7ed54d492fc1abfbeee6ce3cba94d7f3890fff64736f6c63430008080033",
  "immutableReferences": {},
  "source": "// SPDX-License-Identifier: MIT\n\npragma solidity 0.8.8;\n\nimport \"./LPToken.sol\";\nimport \"./EGoldToken.sol\";\nimport \"./EINRToken.sol\";\n//import \"hardhat/console.sol\";\n\ncontract LendingPool{\n    //address of owner of this contract\n    address payable admin;\n    //instance of Lptoken\n    LPToken public lpToken;\n    //instance of EGoldToken\n    EGoldToken public eGoldToken;\n    //instance of EINRToken\n    EINRToken public eINRToken;\n    //total supply of EINR in lending pool\n    uint256 public totalSupply;\n\n    address payable wallet = payable(0xa81A0B8f163EAe6E4265964BC2b8975c44119b4B);\n\n    uint256 public thresholdLimitBorrow = 1500 * 10 ** 18;\n    uint256 public  thresholdLimitLender = 1000 * 10 ** 18;\n\n    uint public interestRateBorrower = 1000; //10% for borrower\n    uint256 public interestRateLender = 800; //8% for lender \n    uint256 public interestRateContract = 200; //2%  application fee commission\n    \n    //mapping to store the balance of EINR deposited in Lending Pool by particular User.\n    mapping(address => uint256)public balanceOfEINR;\n    //mapping to store the balance of EGold deposited in Lending Pool by particular User.\n    mapping(address => uint256)public balanceOfEGold;\n     //mapping to store the balance of EINR borrowed in Lending Pool by particular User.\n    mapping(address => uint256)public borrowEINRAmount;\n    //mapping to store User Deposited time.\n    mapping(address => uint256)public depositStartTime;\n    //mapping to store User Borrowed time.\n    mapping(address => uint256)public borrowedTime;\n    //mapping to check the user has done KYC or not\n    mapping(address =>bool) public usersKYCchecks;\n    // mapping to store UserRepayment amount for repaying\n    mapping(address =>uint256) public userRepayAmount;\n    \n    /** EVENTS */\n    event Deposited(address indexed account, uint256 eINRamount, uint256 startDepositTime);\n    event Withdrawed(address indexed account, uint256 amount);\n    event Borrowedloan(address indexed account,uint256 amount, uint256 startBorrowTime);\n    event Repayedloan(address indexed account, uint256 amount);\n\n    constructor(address _eINRToken, address _eGoldToken, address _lpToken) {\n        admin = payable(msg.sender);\n        eINRToken = EINRToken(_eINRToken);\n        eGoldToken = EGoldToken(_eGoldToken);\n        lpToken = LPToken(_lpToken);       \n    }\n\n    modifier onlyAdmin() {\n        require(admin == msg.sender, \"Not admin\");\n        _;\n    }\n\n    modifier userKycCheck() {\n        require(usersKYCchecks[msg.sender] , \"Kyc not done\");\n        _;\n    }\n    \n    // /** @dev In this function the admin can check whether the User has done KYC or not.\n    // * @param account pass the user account address.\n    // * @param _amount pass the amount of EINR token to be borrowed or deposited.\n    // * @return bool whether the KYC is true or false for the particular User account.\n    // */\n    // function checkKYCForUsers(address account,uint256 _amount)public returns(bool)\n    // {\n    //     if(_amount >thresholdLimitLender && _amount > thresholdLimitBorrow){\n    //         return usersKYCchecks[account]= true;\n    //     }else{\n    //        return usersKYCchecks[account]= false;\n    //     }}\n    function setKycForUser(address _user) public onlyAdmin{\n        require(!usersKYCchecks[_user], \"Kyc already done\");\n        usersKYCchecks[_user]= true;\n    }\n\n\n   /** @dev In this function the User can deposit their EINR asset in Lending Pool.\n    * @param _EINRamount pass the amount of EINR token to deposit in Lending Pool.\n    */\n    function depositeINRToken(uint256 _EINRamount) external{\n        // require(_time == oneMonth ||_time == threeMonths ||_time == sixMonths ||_time == oneYear,\n        //     \"Deposit Time should be in time limits defined\"\n        // );\n        // require(checkKYCForUsers(msg.sender, _EINRamount), \"Need to do Kyc\");\n        require(_EINRamount > 0 && eINRToken.balanceOf(msg.sender) >= _EINRamount,\"You have insufficient EINR\");\n        balanceOfEINR[msg.sender] += _EINRamount;\n        eINRToken.transferFrom(msg.sender, address(this), _EINRamount);\n        depositStartTime[msg.sender] = block.timestamp; \n        //durationForLender[msg.sender]= _time;\n        totalSupply += _EINRamount;\n        emit Deposited(msg.sender, _EINRamount, block.timestamp);\n        //get lP token as a proof of receipt \n        lpToken.mint(msg.sender, _EINRamount);\n    }\n\n    /** @dev This function calculate the interest earn by the depositor.\n    * @return withdrawAmount is the amount with interest earn by depositor.\n    */\n    function getAmountWithInterest() public view returns(uint256){\n       uint256 periodLock = (block.timestamp - depositStartTime[msg.sender])/ 60;\n       //uint256 periodLock = durationForLender[msg.sender];\n       //console.log(periodLock, \"Get the deposit lock time here\");\n       uint256 interestGain = (((balanceOfEINR[msg.sender]/1e18) * interestRateLender * periodLock ) * 10 / (365 * 24 * 60));\n       //console.log(interestGain, \"Interest Gain Per min\");\n       uint256 withdrawAmount = balanceOfEINR[msg.sender] + interestGain;\n       //console.log(withdrawAmount, \"Amount calculated for Investor with Interest\");\n       return (withdrawAmount);\n    }\n\n\n    /** @dev In this function the User can withdraw their EINR asset in Lending Pool.\n    * @param amountToWithdraw pass the amount of EINR token to deposit in Lending Pool.\n    */\n    function withDrawEINRToken(uint256 amountToWithdraw) external{\n        eINRToken.transfer(msg.sender, amountToWithdraw);\n        totalSupply -= amountToWithdraw;\n        emit Withdrawed(msg.sender, amountToWithdraw);\n        //lp token burnt after withdraw\n        lpToken.burn(msg.sender,  balanceOfEINR[msg.sender]);\n        balanceOfEINR[msg.sender] = balanceOfEINR[msg.sender] - amountToWithdraw ;    \n    }\n\n    /** @dev In this function user get the calculated value of EINR token he can borrow.\n    * @param _collateralAmount pass the amount of EGold token as a collateral to be deposited in Lending Pool.\n    * @return borrowEinrAmt calculated loan amount based on the collateral deposited.\n    */\n    function calculatedEINRloan(uint256 _collateralAmount)public view returns(uint256){\n        uint256 borrowEinrAmt = _collateralAmount/2 ;\n        return(borrowEinrAmt);\n    }\n\n    /** @dev In this function the User can borrow  EINR token by depositing Egold token in Lending Pool.\n    * @param _collateralAmount pass the amount of EGold token to  deposit in Lending Pool.\n    */\n    function borrowEINRLoan(uint256 _collateralAmount) external{\n        require(eGoldToken.balanceOf(msg.sender) >= _collateralAmount, \"you have insufficient EGold token\");   \n        balanceOfEGold[msg.sender] += _collateralAmount;// track the amount given as collateral\n        eGoldToken.transferFrom(msg.sender, address(this), _collateralAmount); //2000 Egold token \n        uint256 EINRamount = _collateralAmount / 2; //loan borrowed is half the price of collateral\n        //checkKYCForUsers(msg.sender, EINRamount);\n        totalSupply -= EINRamount;\n        eINRToken.transfer(msg.sender, EINRamount);  \n        borrowedTime[msg.sender] = block.timestamp;\n        //durationForBorrower[msg.sender] = _time;\n        borrowEINRAmount[msg.sender] += EINRamount;\n        // event emitted    \n        emit Borrowedloan(msg.sender, EINRamount, block.timestamp);\n    }\n    \n    /** @dev This function calculate the interest to be repaid by the borrower.\n    * @return repayAmount is the amount with interest to repay by the borrower.\n    */\n    function getborrowerRepayAmount()public  returns(uint256){\n        uint256 dueTime = (block.timestamp - borrowedTime[msg.sender])/60; \n        //uint256 dueTime = durationForBorrower[msg.sender]; \n        //console.log(dueTime, \"Get the loan time here\");\n        uint256 interestToRepay = (((borrowEINRAmount[msg.sender]/1e18)* interestRateBorrower * dueTime)* 10 /(365 * 24 * 60));// interest for lender\n        uint256 repayAmount = borrowEINRAmount[msg.sender] + interestToRepay;//interest added\n        //console.log(repayAmount, \"Amount to be paid by with Interest to the contract\");\n        userRepayAmount[msg.sender] += repayAmount;\n        return (repayAmount);\n    }\n\n    /** @dev In this function the User can repay their EINR asset in Lending Pool.\n    * @param finalRepayAmount repay the amount of EINR token with Interest in Lending Pool.\n    */\n    function repayEINRLoan(uint256 finalRepayAmount)external {\n        require(finalRepayAmount > 0 , \"User has insufficient Balance to repay the loan\");\n        uint256 duration = (block.timestamp - borrowedTime[msg.sender])/60; \n        uint256 interestContract =(((borrowEINRAmount[msg.sender]/1e18)* interestRateContract * duration)* 10 /(365 * 24 * 60));\n        eINRToken.transfer(wallet, interestContract);\n        uint256 payback = finalRepayAmount - interestContract;\n        //console.log(payback);\n        eINRToken.transferFrom(msg.sender ,address(this), payback);\n        totalSupply += payback;\n        borrowEINRAmount[msg.sender]= 0;//deduct the borrow amount from mapping borrow user mapping\n        uint256 repayCollateral = balanceOfEGold[msg.sender];\n        eGoldToken.transfer(msg.sender, repayCollateral);\n        balanceOfEGold[msg.sender]= 0;\n        //event emitted\n        emit Repayedloan(msg.sender, finalRepayAmount);\n    }\n\n    /** @dev In this function get the Total Supply of EINR in Lending Pool.\n    * @return totalSupply gives total amount of EINR stored in Lending .\n    */\n    function getTotalOfSupplyEINRPool() public view returns(uint256){\n        return (totalSupply);\n    }\n\n    /** @dev In this function get the Total Supply of EINR locked in Lending Pool.\n    * @return einramount gives total amount of EINR stored in Lending .\n    */\n    function getTotalOfBalanceEINR() public view returns(uint256) {\n        uint256 einramount = eINRToken.balanceOf(address(this));\n        return (einramount);\n    }\n\n    /** @dev In this function get the Total Supply in Lending Pool.\n    * @return egoldamount gives total amount of EINR stored in Lending\n    */\n    function getTotalBalanceEGold() public view returns(uint256){\n        uint256 egoldamount = eGoldToken.balanceOf(address(this));\n        return (egoldamount);\n    }\n\n    /** @dev In this function get User balance of EINR token Deposited in Lending Pool.\n    * @param account pass the User  account address.\n    * @return baleinr gives User balance of EINR token stored in Lending pool.\n    */\n    function getOwnerDepositEINRBalance(address account) public view returns(uint256) {\n        uint256 baleinr = balanceOfEINR[account];\n        return (baleinr);\n    }\n    \n    /** @dev In this function get User balance of EGold token Deposited in Lending Pool.\n    * @param account pass the User  account address.\n    * @return balegold gives User balance of EGold token stored in Lending pool.\n    */\n    function getOwnerEGoldBalance(address account) public view returns(uint256){\n        uint256 balegold = balanceOfEGold[account];\n        return (balegold);\n    }\n\n    /** @dev In this function get User balance of EINR token Borrowed from Lending Pool.\n    * @param account pass the User  account address.\n    * @return baleinborrow gives User balance of EINR token borrowed from Lending pool.\n    */\n    function getBorrowEINRAmount(address account) public view returns(uint256){\n        uint256 baleinborrow = borrowEINRAmount[account];\n        return (baleinborrow);\n    }\n\n    /** @dev In this function get User balance of LP token minted.\n    * @param account pass the User  account address.\n    * @return lptokenbal gives User balance of LP token minted in Lending pool.\n    */\n    function getBalanceOfLPtoken(address account) public view returns(uint256){\n        uint256 lptokenbal =  lpToken.balanceOf(account);\n        return lptokenbal;\n    }\n    \n    /** @dev In this function get User balance of EINR token to be repaid in Lending Pool.\n    * @param account pass the User  account address.\n    * @return repaybal gives User repay amount of EINR token with interest borrowed.\n    */\n    function getUserRepayAmount(address account) public view returns(uint256){\n        uint256 repaybal = userRepayAmount[account];\n        return repaybal;\n    }\n}\n",
  "sourcePath": "/home/neosoft/project/Defi_lending_POC/Solidity_contracts/contracts/LendingPool.sol",
  "compiler": {
    "name": "solc",
    "version": "0.8.8+commit.dddeac2f.Emscripten.clang"
  },
  "schemaVersion": "3.4.13",
  "updatedAt": "2023-04-19T13:13:55.564Z",
  "networkType": "ethereum",
  "devdoc": {
    "kind": "dev",
    "methods": {
      "borrowEINRLoan(uint256)": {
        "details": "In this function the User can borrow  EINR token by depositing Egold token in Lending Pool.",
        "params": {
          "_collateralAmount": "pass the amount of EGold token to  deposit in Lending Pool."
        }
      },
      "calculatedEINRloan(uint256)": {
        "details": "In this function user get the calculated value of EINR token he can borrow.",
        "params": {
          "_collateralAmount": "pass the amount of EGold token as a collateral to be deposited in Lending Pool."
        },
        "returns": {
          "_0": "borrowEinrAmt calculated loan amount based on the collateral deposited."
        }
      },
      "depositeINRToken(uint256)": {
        "details": "In this function the User can deposit their EINR asset in Lending Pool.",
        "params": {
          "_EINRamount": "pass the amount of EINR token to deposit in Lending Pool."
        }
      },
      "getAmountWithInterest()": {
        "details": "This function calculate the interest earn by the depositor.",
        "returns": {
          "_0": "withdrawAmount is the amount with interest earn by depositor."
        }
      },
      "getBalanceOfLPtoken(address)": {
        "details": "In this function get User balance of LP token minted.",
        "params": {
          "account": "pass the User  account address."
        },
        "returns": {
          "_0": "lptokenbal gives User balance of LP token minted in Lending pool."
        }
      },
      "getBorrowEINRAmount(address)": {
        "details": "In this function get User balance of EINR token Borrowed from Lending Pool.",
        "params": {
          "account": "pass the User  account address."
        },
        "returns": {
          "_0": "baleinborrow gives User balance of EINR token borrowed from Lending pool."
        }
      },
      "getOwnerDepositEINRBalance(address)": {
        "details": "In this function get User balance of EINR token Deposited in Lending Pool.",
        "params": {
          "account": "pass the User  account address."
        },
        "returns": {
          "_0": "baleinr gives User balance of EINR token stored in Lending pool."
        }
      },
      "getOwnerEGoldBalance(address)": {
        "details": "In this function get User balance of EGold token Deposited in Lending Pool.",
        "params": {
          "account": "pass the User  account address."
        },
        "returns": {
          "_0": "balegold gives User balance of EGold token stored in Lending pool."
        }
      },
      "getTotalBalanceEGold()": {
        "details": "In this function get the Total Supply in Lending Pool.",
        "returns": {
          "_0": "egoldamount gives total amount of EINR stored in Lending"
        }
      },
      "getTotalOfBalanceEINR()": {
        "details": "In this function get the Total Supply of EINR locked in Lending Pool.",
        "returns": {
          "_0": "einramount gives total amount of EINR stored in Lending ."
        }
      },
      "getTotalOfSupplyEINRPool()": {
        "details": "In this function get the Total Supply of EINR in Lending Pool.",
        "returns": {
          "_0": "totalSupply gives total amount of EINR stored in Lending ."
        }
      },
      "getUserRepayAmount(address)": {
        "details": "In this function get User balance of EINR token to be repaid in Lending Pool.",
        "params": {
          "account": "pass the User  account address."
        },
        "returns": {
          "_0": "repaybal gives User repay amount of EINR token with interest borrowed."
        }
      },
      "getborrowerRepayAmount()": {
        "details": "This function calculate the interest to be repaid by the borrower.",
        "returns": {
          "_0": "repayAmount is the amount with interest to repay by the borrower."
        }
      },
      "repayEINRLoan(uint256)": {
        "details": "In this function the User can repay their EINR asset in Lending Pool.",
        "params": {
          "finalRepayAmount": "repay the amount of EINR token with Interest in Lending Pool."
        }
      },
      "withDrawEINRToken(uint256)": {
        "details": "In this function the User can withdraw their EINR asset in Lending Pool.",
        "params": {
          "amountToWithdraw": "pass the amount of EINR token to deposit in Lending Pool."
        }
      }
    },
    "version": 1
  },
  "userdoc": {
    "events": {
      "Deposited(address,uint256,uint256)": {
        "notice": "EVENTS "
      }
    },
    "kind": "user",
    "methods": {},
    "version": 1
  }
}